{
  "_format": "hh-sol-artifact-1",
  "contractName": "WETH",
  "sourceName": "lib/solmate/src/tokens/WETH.sol",
  "abi": [
    {
      "anonymous": false,
      "inputs": [
        {
          "indexed": true,
          "internalType": "address",
          "name": "owner",
          "type": "address"
        },
        {
          "indexed": true,
          "internalType": "address",
          "name": "spender",
          "type": "address"
        },
        {
          "indexed": false,
          "internalType": "uint256",
          "name": "amount",
          "type": "uint256"
        }
      ],
      "name": "Approval",
      "type": "event"
    },
    {
      "anonymous": false,
      "inputs": [
        {
          "indexed": true,
          "internalType": "address",
          "name": "from",
          "type": "address"
        },
        {
          "indexed": false,
          "internalType": "uint256",
          "name": "amount",
          "type": "uint256"
        }
      ],
      "name": "Deposit",
      "type": "event"
    },
    {
      "anonymous": false,
      "inputs": [
        {
          "indexed": true,
          "internalType": "address",
          "name": "from",
          "type": "address"
        },
        {
          "indexed": true,
          "internalType": "address",
          "name": "to",
          "type": "address"
        },
        {
          "indexed": false,
          "internalType": "uint256",
          "name": "amount",
          "type": "uint256"
        }
      ],
      "name": "Transfer",
      "type": "event"
    },
    {
      "anonymous": false,
      "inputs": [
        {
          "indexed": true,
          "internalType": "address",
          "name": "to",
          "type": "address"
        },
        {
          "indexed": false,
          "internalType": "uint256",
          "name": "amount",
          "type": "uint256"
        }
      ],
      "name": "Withdrawal",
      "type": "event"
    },
    {
      "inputs": [],
      "name": "DOMAIN_SEPARATOR",
      "outputs": [
        {
          "internalType": "bytes32",
          "name": "",
          "type": "bytes32"
        }
      ],
      "stateMutability": "view",
      "type": "function"
    },
    {
      "inputs": [],
      "name": "PERMIT_TYPEHASH",
      "outputs": [
        {
          "internalType": "bytes32",
          "name": "",
          "type": "bytes32"
        }
      ],
      "stateMutability": "view",
      "type": "function"
    },
    {
      "inputs": [
        {
          "internalType": "address",
          "name": "",
          "type": "address"
        },
        {
          "internalType": "address",
          "name": "",
          "type": "address"
        }
      ],
      "name": "allowance",
      "outputs": [
        {
          "internalType": "uint256",
          "name": "",
          "type": "uint256"
        }
      ],
      "stateMutability": "view",
      "type": "function"
    },
    {
      "inputs": [
        {
          "internalType": "address",
          "name": "spender",
          "type": "address"
        },
        {
          "internalType": "uint256",
          "name": "amount",
          "type": "uint256"
        }
      ],
      "name": "approve",
      "outputs": [
        {
          "internalType": "bool",
          "name": "",
          "type": "bool"
        }
      ],
      "stateMutability": "nonpayable",
      "type": "function"
    },
    {
      "inputs": [
        {
          "internalType": "address",
          "name": "",
          "type": "address"
        }
      ],
      "name": "balanceOf",
      "outputs": [
        {
          "internalType": "uint256",
          "name": "",
          "type": "uint256"
        }
      ],
      "stateMutability": "view",
      "type": "function"
    },
    {
      "inputs": [],
      "name": "decimals",
      "outputs": [
        {
          "internalType": "uint8",
          "name": "",
          "type": "uint8"
        }
      ],
      "stateMutability": "view",
      "type": "function"
    },
    {
      "inputs": [],
      "name": "deposit",
      "outputs": [],
      "stateMutability": "payable",
      "type": "function"
    },
    {
      "inputs": [],
      "name": "name",
      "outputs": [
        {
          "internalType": "string",
          "name": "",
          "type": "string"
        }
      ],
      "stateMutability": "view",
      "type": "function"
    },
    {
      "inputs": [
        {
          "internalType": "address",
          "name": "",
          "type": "address"
        }
      ],
      "name": "nonces",
      "outputs": [
        {
          "internalType": "uint256",
          "name": "",
          "type": "uint256"
        }
      ],
      "stateMutability": "view",
      "type": "function"
    },
    {
      "inputs": [
        {
          "internalType": "address",
          "name": "owner",
          "type": "address"
        },
        {
          "internalType": "address",
          "name": "spender",
          "type": "address"
        },
        {
          "internalType": "uint256",
          "name": "value",
          "type": "uint256"
        },
        {
          "internalType": "uint256",
          "name": "deadline",
          "type": "uint256"
        },
        {
          "internalType": "uint8",
          "name": "v",
          "type": "uint8"
        },
        {
          "internalType": "bytes32",
          "name": "r",
          "type": "bytes32"
        },
        {
          "internalType": "bytes32",
          "name": "s",
          "type": "bytes32"
        }
      ],
      "name": "permit",
      "outputs": [],
      "stateMutability": "nonpayable",
      "type": "function"
    },
    {
      "inputs": [],
      "name": "symbol",
      "outputs": [
        {
          "internalType": "string",
          "name": "",
          "type": "string"
        }
      ],
      "stateMutability": "view",
      "type": "function"
    },
    {
      "inputs": [],
      "name": "totalSupply",
      "outputs": [
        {
          "internalType": "uint256",
          "name": "",
          "type": "uint256"
        }
      ],
      "stateMutability": "view",
      "type": "function"
    },
    {
      "inputs": [
        {
          "internalType": "address",
          "name": "to",
          "type": "address"
        },
        {
          "internalType": "uint256",
          "name": "amount",
          "type": "uint256"
        }
      ],
      "name": "transfer",
      "outputs": [
        {
          "internalType": "bool",
          "name": "",
          "type": "bool"
        }
      ],
      "stateMutability": "nonpayable",
      "type": "function"
    },
    {
      "inputs": [
        {
          "internalType": "address",
          "name": "from",
          "type": "address"
        },
        {
          "internalType": "address",
          "name": "to",
          "type": "address"
        },
        {
          "internalType": "uint256",
          "name": "amount",
          "type": "uint256"
        }
      ],
      "name": "transferFrom",
      "outputs": [
        {
          "internalType": "bool",
          "name": "",
          "type": "bool"
        }
      ],
      "stateMutability": "nonpayable",
      "type": "function"
    },
    {
      "inputs": [
        {
          "internalType": "uint256",
          "name": "amount",
          "type": "uint256"
        }
      ],
      "name": "withdraw",
      "outputs": [],
      "stateMutability": "nonpayable",
      "type": "function"
    },
    {
      "stateMutability": "payable",
      "type": "receive"
    }
  ],
  "bytecode": "0x60e06040523480156200001157600080fd5b50604080518082018252600d81526c2bb930b83832b21022ba3432b960991b6020808301918252835180850190945260048452630ae8aa8960e31b90840152815191929160129162000067916000919062000151565b5081516200007d90600190602085019062000151565b5060ff81166080524660a05262000093620000a0565b60c05250620002d8915050565b60007f8b73c3c69bb8fe3d512ecc4cf759cc79239f7b179b0ffacaa9a75d522b39400f6000604051620000d4919062000234565b60408051918290038220828201825260018352603160f81b6020938401528151928301939093528101919091527fc89efdaa54c0f20c7adf612882df0950f5a951637e0307cdcb4c672f298b8bc660608201524660808201523060a082015260c00160405160208183030381529060405280519060200120905090565b8280546200015f90620001f7565b90600052602060002090601f016020900481019282620001835760008555620001ce565b82601f106200019e57805160ff1916838001178555620001ce565b82800160010185558215620001ce579182015b82811115620001ce578251825591602001919060010190620001b1565b50620001dc929150620001e0565b5090565b5b80821115620001dc5760008155600101620001e1565b600181811c908216806200020c57607f821691505b602082108114156200022e57634e487b7160e01b600052602260045260246000fd5b50919050565b600080835481600182811c9150808316806200025157607f831692505b60208084108214156200027257634e487b7160e01b86526022600452602486fd5b8180156200028957600181146200029b57620002ca565b60ff19861689528489019650620002ca565b60008a81526020902060005b86811015620002c25781548b820152908501908301620002a7565b505084890196505b509498975050505050505050565b60805160a05160c051610dca6200030860003960006105e5015260006105b0015260006102050152610dca6000f3fe6080604052600436106100ec5760003560e01c80633644e5151161008a578063a9059cbb11610059578063a9059cbb146102bd578063d0e30db0146102dd578063d505accf146102e5578063dd62ed3e1461030557600080fd5b80633644e5151461023957806370a082311461024e5780637ecebe001461027b57806395d89b41146102a857600080fd5b806323b872dd116100c657806323b872dd1461017f5780632e1a7d4d1461019f57806330adf81f146101bf578063313ce567146101f357600080fd5b806306fdde0314610100578063095ea7b31461012b57806318160ddd1461015b57600080fd5b366100fb576100f961033d565b005b600080fd5b34801561010c57600080fd5b5061011561037e565b6040516101229190610aa0565b60405180910390f35b34801561013757600080fd5b5061014b610146366004610b11565b61040c565b6040519015158152602001610122565b34801561016757600080fd5b5061017160025481565b604051908152602001610122565b34801561018b57600080fd5b5061014b61019a366004610b3b565b610478565b3480156101ab57600080fd5b506100f96101ba366004610b77565b610560565b3480156101cb57600080fd5b506101717f6e71edae12b1b97f4d1f60370fef10105fa2faae0126114a169c64845d6126c981565b3480156101ff57600080fd5b506102277f000000000000000000000000000000000000000000000000000000000000000081565b60405160ff9091168152602001610122565b34801561024557600080fd5b506101716105ac565b34801561025a57600080fd5b50610171610269366004610b90565b60036020526000908152604090205481565b34801561028757600080fd5b50610171610296366004610b90565b60056020526000908152604090205481565b3480156102b457600080fd5b50610115610607565b3480156102c957600080fd5b5061014b6102d8366004610b11565b610614565b6100f961033d565b3480156102f157600080fd5b506100f9610300366004610bb2565b61067a565b34801561031157600080fd5b50610171610320366004610c25565b600460209081526000928352604080842090915290825290205481565b61034733346108df565b60405134815233907fe1fffcc4923d04b559f4d29a8bfc6cda04eb5b0d3c460751c2402c5c5cc9109c9060200160405180910390a2565b6000805461038b90610c58565b80601f01602080910402602001604051908101604052809291908181526020018280546103b790610c58565b80156104045780601f106103d957610100808354040283529160200191610404565b820191906000526020600020905b8154815290600101906020018083116103e757829003601f168201915b505050505081565b3360008181526004602090815260408083206001600160a01b038716808552925280832085905551919290917f8c5be1e5ebec7d5bd14f71427d1e84f3dd0314c0f7b2291e5b200ac8c7c3b925906104679086815260200190565b60405180910390a350600192915050565b6001600160a01b0383166000908152600460209081526040808320338452909152812054600019146104dd576001600160a01b0384166000908152600460209081526040808320338452909152812080548492906104d7908490610ca9565b90915550505b6001600160a01b03841660009081526003602052604081208054849290610505908490610ca9565b90915550506001600160a01b0380841660008181526003602052604090819020805486019055519091861690600080516020610d758339815191529061054e9086815260200190565b60405180910390a35060019392505050565b61056a3382610939565b610574338261099b565b60405181815233907f7fcf532c15f0a6db0bd6d0e038bea71d30d808c7d98cb3bf7268a95bf5081b659060200160405180910390a250565b60007f000000000000000000000000000000000000000000000000000000000000000046146105e2576105dd6109f1565b905090565b507f000000000000000000000000000000000000000000000000000000000000000090565b6001805461038b90610c58565b33600090815260036020526040812080548391908390610635908490610ca9565b90915550506001600160a01b03831660008181526003602052604090819020805485019055513390600080516020610d75833981519152906104679086815260200190565b428410156106cf5760405162461bcd60e51b815260206004820152601760248201527f5045524d49545f444541444c494e455f4558504952454400000000000000000060448201526064015b60405180910390fd5b60006106d96105ac565b6001600160a01b0389811660008181526005602090815260409182902080546001810190915582517f6e71edae12b1b97f4d1f60370fef10105fa2faae0126114a169c64845d6126c98184015280840194909452938c166060840152608083018b905260a083019390935260c08083018a90528151808403909101815260e08301909152805192019190912061190160f01b6101008301526101028201929092526101228101919091526101420160408051601f198184030181528282528051602091820120600080855291840180845281905260ff88169284019290925260608301869052608083018590529092509060019060a0016020604051602081039080840390855afa1580156107f2573d6000803e3d6000fd5b5050604051601f1901519150506001600160a01b038116158015906108285750886001600160a01b0316816001600160a01b0316145b6108745760405162461bcd60e51b815260206004820152601860248201527f494e56414c49445f5045524d49545f5349474e4154555245000000000000000060448201526064016106c6565b6001600160a01b0390811660009081526004602090815260408083208b8516808552908352928190208a905551898152919350918a16917f8c5be1e5ebec7d5bd14f71427d1e84f3dd0314c0f7b2291e5b200ac8c7c3b925910160405180910390a350505050505050565b80600260008282546108f19190610cc0565b90915550506001600160a01b038216600081815260036020908152604080832080548601905551848152600080516020610d7583398151915291015b60405180910390a35050565b6001600160a01b03821660009081526003602052604081208054839290610961908490610ca9565b90915550506002805482900390556040518181526000906001600160a01b03841690600080516020610d758339815191529060200161092d565b600080600080600085875af19050806109ec5760405162461bcd60e51b815260206004820152601360248201527211551217d514905394d1915497d19052531151606a1b60448201526064016106c6565b505050565b60007f8b73c3c69bb8fe3d512ecc4cf759cc79239f7b179b0ffacaa9a75d522b39400f6000604051610a239190610cd8565b60408051918290038220828201825260018352603160f81b6020938401528151928301939093528101919091527fc89efdaa54c0f20c7adf612882df0950f5a951637e0307cdcb4c672f298b8bc660608201524660808201523060a082015260c00160405160208183030381529060405280519060200120905090565b600060208083528351808285015260005b81811015610acd57858101830151858201604001528201610ab1565b81811115610adf576000604083870101525b50601f01601f1916929092016040019392505050565b80356001600160a01b0381168114610b0c57600080fd5b919050565b60008060408385031215610b2457600080fd5b610b2d83610af5565b946020939093013593505050565b600080600060608486031215610b5057600080fd5b610b5984610af5565b9250610b6760208501610af5565b9150604084013590509250925092565b600060208284031215610b8957600080fd5b5035919050565b600060208284031215610ba257600080fd5b610bab82610af5565b9392505050565b600080600080600080600060e0888a031215610bcd57600080fd5b610bd688610af5565b9650610be460208901610af5565b95506040880135945060608801359350608088013560ff81168114610c0857600080fd5b9699959850939692959460a0840135945060c09093013592915050565b60008060408385031215610c3857600080fd5b610c4183610af5565b9150610c4f60208401610af5565b90509250929050565b600181811c90821680610c6c57607f821691505b60208210811415610c8d57634e487b7160e01b600052602260045260246000fd5b50919050565b634e487b7160e01b600052601160045260246000fd5b600082821015610cbb57610cbb610c93565b500390565b60008219821115610cd357610cd3610c93565b500190565b600080835481600182811c915080831680610cf457607f831692505b6020808410821415610d1457634e487b7160e01b86526022600452602486fd5b818015610d285760018114610d3957610d66565b60ff19861689528489019650610d66565b60008a81526020902060005b86811015610d5e5781548b820152908501908301610d45565b505084890196505b50949897505050505050505056feddf252ad1be2c89b69c2b068fc378daa952ba7f163c4a11628f55a4df523b3efa26469706673582212209faa2ec045f22e8eb07a39c16d62451bcb7f085264097e072eb45fad0682816964736f6c634300080a0033",
  "linkReferences": {},
  "deployedLinkReferences": {}
}