{
  "_format": "hh-sol-artifact-1",
  "contractName": "ZuniswapV2Router",
  "sourceName": "contracts/ZuniswapV2Router.sol",
  "abi": [
    {
      "inputs": [
        {
          "internalType": "address",
          "name": "factoryAddress",
          "type": "address"
        },
        {
          "internalType": "address",
          "name": "_WETH",
          "type": "address"
        }
      ],
      "stateMutability": "nonpayable",
      "type": "constructor"
    },
    {
      "inputs": [],
      "name": "ExcessiveInputAmount",
      "type": "error"
    },
    {
      "inputs": [],
      "name": "InsufficientAAmount",
      "type": "error"
    },
    {
      "inputs": [],
      "name": "InsufficientBAmount",
      "type": "error"
    },
    {
      "inputs": [],
      "name": "InsufficientOutputAmount",
      "type": "error"
    },
    {
      "inputs": [],
      "name": "NOtETHINCONTRACT",
      "type": "error"
    },
    {
      "inputs": [],
      "name": "SafeTransferETHFailed",
      "type": "error"
    },
    {
      "inputs": [],
      "name": "SafeTransferFailed",
      "type": "error"
    },
    {
      "inputs": [],
      "name": "SafeTransferFromFailed",
      "type": "error"
    },
    {
      "stateMutability": "payable",
      "type": "fallback"
    },
    {
      "inputs": [],
      "name": "WETHAddrees",
      "outputs": [
        {
          "internalType": "address",
          "name": "",
          "type": "address"
        }
      ],
      "stateMutability": "view",
      "type": "function"
    },
    {
      "inputs": [
        {
          "internalType": "address",
          "name": "tokenA",
          "type": "address"
        },
        {
          "internalType": "address",
          "name": "tokenB",
          "type": "address"
        },
        {
          "internalType": "uint256",
          "name": "amountADesired",
          "type": "uint256"
        },
        {
          "internalType": "uint256",
          "name": "amountBDesired",
          "type": "uint256"
        },
        {
          "internalType": "uint256",
          "name": "amountAMin",
          "type": "uint256"
        },
        {
          "internalType": "uint256",
          "name": "amountBMin",
          "type": "uint256"
        },
        {
          "internalType": "address",
          "name": "to",
          "type": "address"
        }
      ],
      "name": "addLiquidity",
      "outputs": [
        {
          "internalType": "uint256",
          "name": "amountA",
          "type": "uint256"
        },
        {
          "internalType": "uint256",
          "name": "amountB",
          "type": "uint256"
        },
        {
          "internalType": "uint256",
          "name": "liquidity",
          "type": "uint256"
        }
      ],
      "stateMutability": "nonpayable",
      "type": "function"
    },
    {
      "inputs": [
        {
          "internalType": "address",
          "name": "token",
          "type": "address"
        },
        {
          "internalType": "address",
          "name": "wa",
          "type": "address"
        },
        {
          "internalType": "uint256",
          "name": "amountTokenDesired",
          "type": "uint256"
        },
        {
          "internalType": "uint256",
          "name": "amountTokenMin",
          "type": "uint256"
        },
        {
          "internalType": "uint256",
          "name": "amountETHMin",
          "type": "uint256"
        },
        {
          "internalType": "address",
          "name": "to",
          "type": "address"
        }
      ],
      "name": "addLiquidityETH",
      "outputs": [
        {
          "internalType": "uint256",
          "name": "amountToken",
          "type": "uint256"
        },
        {
          "internalType": "uint256",
          "name": "amountETH",
          "type": "uint256"
        },
        {
          "internalType": "uint256",
          "name": "liquidity",
          "type": "uint256"
        }
      ],
      "stateMutability": "payable",
      "type": "function"
    },
    {
      "inputs": [
        {
          "internalType": "address",
          "name": "tokenA",
          "type": "address"
        },
        {
          "internalType": "address",
          "name": "tokenB",
          "type": "address"
        },
        {
          "internalType": "uint256",
          "name": "liquidity",
          "type": "uint256"
        },
        {
          "internalType": "uint256",
          "name": "amountAMin",
          "type": "uint256"
        },
        {
          "internalType": "uint256",
          "name": "amountBMin",
          "type": "uint256"
        },
        {
          "internalType": "address",
          "name": "to",
          "type": "address"
        }
      ],
      "name": "removeLiquidity",
      "outputs": [
        {
          "internalType": "uint256",
          "name": "amountA",
          "type": "uint256"
        },
        {
          "internalType": "uint256",
          "name": "amountB",
          "type": "uint256"
        }
      ],
      "stateMutability": "nonpayable",
      "type": "function"
    },
    {
      "inputs": [
        {
          "internalType": "address",
          "name": "token",
          "type": "address"
        },
        {
          "internalType": "address",
          "name": "wa",
          "type": "address"
        },
        {
          "internalType": "uint256",
          "name": "liquidity",
          "type": "uint256"
        },
        {
          "internalType": "uint256",
          "name": "amountTokenMin",
          "type": "uint256"
        },
        {
          "internalType": "uint256",
          "name": "amountETHMin",
          "type": "uint256"
        },
        {
          "internalType": "address",
          "name": "to",
          "type": "address"
        }
      ],
      "name": "removeLiquidityETH",
      "outputs": [
        {
          "internalType": "uint256",
          "name": "amountToken",
          "type": "uint256"
        },
        {
          "internalType": "uint256",
          "name": "amountETH",
          "type": "uint256"
        }
      ],
      "stateMutability": "nonpayable",
      "type": "function"
    },
    {
      "inputs": [
        {
          "internalType": "uint256",
          "name": "amountOut",
          "type": "uint256"
        },
        {
          "internalType": "address[]",
          "name": "path",
          "type": "address[]"
        },
        {
          "internalType": "address",
          "name": "to",
          "type": "address"
        }
      ],
      "name": "swapETHForExactTokens",
      "outputs": [
        {
          "internalType": "uint256[]",
          "name": "amounts",
          "type": "uint256[]"
        }
      ],
      "stateMutability": "payable",
      "type": "function"
    },
    {
      "inputs": [
        {
          "internalType": "uint256",
          "name": "amountOutMin",
          "type": "uint256"
        },
        {
          "internalType": "address[]",
          "name": "path",
          "type": "address[]"
        },
        {
          "internalType": "address",
          "name": "to",
          "type": "address"
        }
      ],
      "name": "swapExactETHForTokens",
      "outputs": [
        {
          "internalType": "uint256[]",
          "name": "amounts",
          "type": "uint256[]"
        }
      ],
      "stateMutability": "payable",
      "type": "function"
    },
    {
      "inputs": [
        {
          "internalType": "uint256",
          "name": "amountIn",
          "type": "uint256"
        },
        {
          "internalType": "uint256",
          "name": "amountOutMin",
          "type": "uint256"
        },
        {
          "internalType": "address[]",
          "name": "path",
          "type": "address[]"
        },
        {
          "internalType": "address",
          "name": "to",
          "type": "address"
        }
      ],
      "name": "swapExactTokensForETH",
      "outputs": [
        {
          "internalType": "uint256[]",
          "name": "amounts",
          "type": "uint256[]"
        }
      ],
      "stateMutability": "payable",
      "type": "function"
    },
    {
      "inputs": [
        {
          "internalType": "uint256",
          "name": "amountIn",
          "type": "uint256"
        },
        {
          "internalType": "uint256",
          "name": "amountOutMin",
          "type": "uint256"
        },
        {
          "internalType": "address[]",
          "name": "path",
          "type": "address[]"
        },
        {
          "internalType": "address",
          "name": "to",
          "type": "address"
        }
      ],
      "name": "swapExactTokensForTokens",
      "outputs": [
        {
          "internalType": "uint256[]",
          "name": "amounts",
          "type": "uint256[]"
        }
      ],
      "stateMutability": "nonpayable",
      "type": "function"
    },
    {
      "inputs": [
        {
          "internalType": "uint256",
          "name": "amountOut",
          "type": "uint256"
        },
        {
          "internalType": "uint256",
          "name": "amountInMax",
          "type": "uint256"
        },
        {
          "internalType": "address[]",
          "name": "path",
          "type": "address[]"
        },
        {
          "internalType": "address",
          "name": "to",
          "type": "address"
        }
      ],
      "name": "swapTokensForExactETH",
      "outputs": [
        {
          "internalType": "uint256[]",
          "name": "amounts",
          "type": "uint256[]"
        }
      ],
      "stateMutability": "payable",
      "type": "function"
    },
    {
      "inputs": [
        {
          "internalType": "uint256",
          "name": "amountOut",
          "type": "uint256"
        },
        {
          "internalType": "uint256",
          "name": "amountInMax",
          "type": "uint256"
        },
        {
          "internalType": "address[]",
          "name": "path",
          "type": "address[]"
        },
        {
          "internalType": "address",
          "name": "to",
          "type": "address"
        }
      ],
      "name": "swapTokensForExactTokens",
      "outputs": [
        {
          "internalType": "uint256[]",
          "name": "amounts",
          "type": "uint256[]"
        }
      ],
      "stateMutability": "nonpayable",
      "type": "function"
    },
    {
      "stateMutability": "payable",
      "type": "receive"
    }
  ],
  "bytecode": "0x60806040523480156200001157600080fd5b506040516200445d3803806200445d833981016040819052620000349162000083565b600080546001600160a01b039384166001600160a01b03199182161790915560028054929093169116179055620000bb565b80516001600160a01b03811681146200007e57600080fd5b919050565b600080604083850312156200009757600080fd5b620000a28362000066565b9150620000b26020840162000066565b90509250929050565b61439280620000cb6000396000f3fe608060405260043610620000a75760003560e01c806342712a67116200006957806342712a671462000160578063472b43f31462000185578063c0e3ee6b14620001aa578063ca3d653914620001cf578063dd943e061462000210578063ee048076146200022757005b80631008698214620000b157806312c6442f14620000e05780631c94385014620000f7578063363db5c614620001325780633e8877ed146200014957005b36620000af57005b005b620000c8620000c236600462001e00565b62000262565b604051620000d7919062001e65565b60405180910390f35b620000c8620000f136600462001e00565b620005e5565b3480156200010457600080fd5b506200011c6200011636600462001eab565b620008bf565b60408051928352602083019190915201620000d7565b620000c86200014336600462001f19565b620009a0565b620000c86200015a36600462001f19565b62000cb3565b3480156200016d57600080fd5b50620000c86200017f36600462001f19565b62000df7565b3480156200019257600080fd5b50620000c8620001a436600462001f19565b62000f38565b348015620001b757600080fd5b506200011c620001c936600462001eab565b6200101e565b348015620001dc57600080fd5b50620001f4620001ee36600462001f8a565b620011b9565b60408051938452602084019290925290820152606001620000d7565b620001f46200022136600462001eab565b6200128c565b3480156200023457600080fd5b5060025462000249906001600160a01b031681565b6040516001600160a01b039091168152602001620000d7565b6002546060906001600160a01b0316848460008162000285576200028562002003565b90506020020160208101906200029c919062002019565b6001600160a01b031614620002ce5760405162461bcd60e51b8152600401620002c59062002040565b60405180910390fd5b600054604051630c90945960e11b815273__$f036feae03741da3a31bd7f7f2ced4627c$__9163192128b29162000318916001600160a01b03169089908990899060040162002077565b600060405180830381865af415801562000336573d6000803e3d6000fd5b505050506040513d6000823e601f3d908101601f19168201604052620003609190810190620020f4565b9050348160008151811062000379576200037962002003565b60200260200101511115620003a25760405162461bcd60e51b8152600401620002c590620021be565b60025481516001600160a01b039091169063d0e30db0908390600090620003cd57620003cd62002003565b60200260200101516040518263ffffffff1660e01b81526004016000604051808303818588803b1580156200040157600080fd5b505af115801562000416573d6000803e3d6000fd5b5050600254600080546001600160a01b03928316955063a9059cbb94506200049b935090911690889088908162000451576200045162002003565b905060200201602081019062000468919062002019565b888860018181106200047e576200047e62002003565b905060200201602081019062000495919062002019565b62001446565b83600081518110620004b157620004b162002003565b60200260200101516040518363ffffffff1660e01b8152600401620004eb9291906001600160a01b03929092168252602082015260400190565b6020604051808303816000875af11580156200050b573d6000803e3d6000fd5b505050506040513d601f19601f8201168201806040525081019062000531919062002206565b6200054057620005406200222a565b620005818185858080602002602001604051908101604052809392919081815260200183836020028082843760009201919091525087925062001563915050565b8060008151811062000597576200059762002003565b6020026020010151341115620005dd57620005dd3382600081518110620005c257620005c262002003565b602002602001015134620005d7919062002256565b62001754565b949350505050565b6002546060906001600160a01b0316848460008162000608576200060862002003565b90506020020160208101906200061f919062002019565b6001600160a01b031614620006485760405162461bcd60e51b8152600401620002c59062002040565b600054604051635dbdce3b60e11b815273__$f036feae03741da3a31bd7f7f2ced4627c$__9163bb7b9c769162000692916001600160a01b03169034908990899060040162002077565b600060405180830381865af4158015620006b0573d6000803e3d6000fd5b505050506040513d6000823e601f3d908101601f19168201604052620006da9190810190620020f4565b9050848160018351620006ee919062002256565b8151811062000701576200070162002003565b602002602001015110156200072a5760405162461bcd60e51b8152600401620002c59062002270565b60025481516001600160a01b039091169063d0e30db090839060009062000755576200075562002003565b60200260200101516040518263ffffffff1660e01b81526004016000604051808303818588803b1580156200078957600080fd5b505af11580156200079e573d6000803e3d6000fd5b5050600254600080546001600160a01b03928316955063a9059cbb9450620007d9935090911690889088908162000451576200045162002003565b83600081518110620007ef57620007ef62002003565b60200260200101516040518363ffffffff1660e01b8152600401620008299291906001600160a01b03929092168252602082015260400190565b6020604051808303816000875af115801562000849573d6000803e3d6000fd5b505050506040513d601f19601f820116820180604052508101906200086f919062002206565b6200087e576200087e6200222a565b620005dd8185858080602002602001604051908101604052809392919081815260200183836020028082843760009201919091525087925062001563915050565b600080620008d28888888888306200101e565b9092509050620008e4888484620017ec565b604051632e1a7d4d60e01b8152600481018290526001600160a01b03881690632e1a7d4d90602401600060405180830381600087803b1580156200092757600080fd5b505af11580156200093c573d6000803e3d6000fd5b50505050804714620009895760405162461bcd60e51b81526020600482015260156024820152740c4c2d8c2dcc6cae640c8de40dcdee840dac2e8c6d605b1b6044820152606401620002c5565b62000995838262001754565b965096945050505050565b6002546060906001600160a01b03168484620009be60018262002256565b818110620009d057620009d062002003565b9050602002016020810190620009e7919062002019565b6001600160a01b03161462000a105760405162461bcd60e51b8152600401620002c59062002040565b600054604051635dbdce3b60e11b815273__$f036feae03741da3a31bd7f7f2ced4627c$__9163bb7b9c769162000a5a916001600160a01b0316908a908990899060040162002077565b600060405180830381865af415801562000a78573d6000803e3d6000fd5b505050506040513d6000823e601f3d908101601f1916820160405262000aa29190810190620020f4565b905084816001835162000ab6919062002256565b8151811062000ac95762000ac962002003565b6020026020010151101562000af25760405162461bcd60e51b8152600401620002c59062002270565b62000b9d8484600081811062000b0c5762000b0c62002003565b905060200201602081019062000b23919062002019565b60008054339162000b79916001600160a01b031690899089908162000b4c5762000b4c62002003565b905060200201602081019062000b63919062002019565b898960018181106200047e576200047e62002003565b8460008151811062000b8f5762000b8f62002003565b6020026020010151620018e4565b62000bde8185858080602002602001604051908101604052809392919081815260200183836020028082843760009201919091525030925062001563915050565b60025481516001600160a01b0390911690632e1a7d4d90839062000c059060019062002256565b8151811062000c185762000c1862002003565b60200260200101516040518263ffffffff1660e01b815260040162000c3f91815260200190565b600060405180830381600087803b15801562000c5a57600080fd5b505af115801562000c6f573d6000803e3d6000fd5b5050505062000caa82826001845162000c89919062002256565b8151811062000c9c5762000c9c62002003565b602002602001015162001754565b95945050505050565b6002546060906001600160a01b0316848462000cd160018262002256565b81811062000ce35762000ce362002003565b905060200201602081019062000cfa919062002019565b6001600160a01b03161462000d235760405162461bcd60e51b8152600401620002c59062002040565b600054604051630c90945960e11b815273__$f036feae03741da3a31bd7f7f2ced4627c$__9163192128b29162000d6d916001600160a01b0316908a908990899060040162002077565b600060405180830381865af415801562000d8b573d6000803e3d6000fd5b505050506040513d6000823e601f3d908101601f1916820160405262000db59190810190620020f4565b9050848160008151811062000dce5762000dce62002003565b6020026020010151111562000af25760405162461bcd60e51b8152600401620002c590620021be565b600054604051630c90945960e11b815260609173__$f036feae03741da3a31bd7f7f2ced4627c$__9163192128b29162000e46916001600160a01b03909116908a908990899060040162002077565b600060405180830381865af415801562000e64573d6000803e3d6000fd5b505050506040513d6000823e601f3d908101601f1916820160405262000e8e9190810190620020f4565b905084816001835162000ea2919062002256565b8151811062000eb55762000eb562002003565b6020026020010151111562000edd5760405163e1b0da4f60e01b815260040160405180910390fd5b62000ef78484600081811062000b0c5762000b0c62002003565b62000caa8185858080602002602001604051908101604052809392919081815260200183836020028082843760009201919091525087925062001563915050565b600054604051635dbdce3b60e11b815260609173__$f036feae03741da3a31bd7f7f2ced4627c$__9163bb7b9c769162000f87916001600160a01b03909116908a908990899060040162002077565b600060405180830381865af415801562000fa5573d6000803e3d6000fd5b505050506040513d6000823e601f3d908101601f1916820160405262000fcf9190810190620020f4565b905084816001835162000fe3919062002256565b8151811062000ff65762000ff662002003565b6020026020010151101562000edd576040516342301c2360e01b815260040160405180910390fd5b60008054819081906200103c906001600160a01b03168a8a62001446565b6040516323b872dd60e01b81523360048201526001600160a01b03821660248201819052604482018a90529192506323b872dd906064016020604051808303816000875af115801562001093573d6000803e3d6000fd5b505050506040513d601f19601f82011682018060405250810190620010b9919062002206565b5060405163226bf2d160e21b81526001600160a01b0385811660048301528216906389afcb449060240160408051808303816000875af115801562001102573d6000803e3d6000fd5b505050506040513d601f19601f82011682018060405250810190620011289190620022bc565b909350915060006200113b8a8a620019e5565b509050806001600160a01b03168a6001600160a01b0316146200116057838362001163565b83835b9094509250868410156200118a57604051638dc525d160e01b815260040160405180910390fd5b85841015620011ac5760405163ef71d09160e01b815260040160405180910390fd5b5050965096945050505050565b6000806000620011ce8a8a8a8a8a8a62001a19565b6000805492955090935090620011ef906001600160a01b03168c8c62001446565b9050620011ff8b338387620018e4565b6200120d8a338386620018e4565b6040516335313c2160e11b81526001600160a01b038681166004830152821690636a627842906024016020604051808303816000875af115801562001256573d6000803e3d6000fd5b505050506040513d601f19601f820116820180604052508101906200127c9190620022e1565b9150509750975097945050505050565b6000806000620012a1898989348a8a62001a19565b6000805492955090935090620012c2906001600160a01b03168b8b62001446565b9050620012d28a338387620018e4565b886001600160a01b031663d0e30db0846040518263ffffffff1660e01b81526004016000604051808303818588803b1580156200130e57600080fd5b505af115801562001323573d6000803e3d6000fd5b505060405163a9059cbb60e01b81526001600160a01b038581166004830152602482018890528d16935063a9059cbb925060440190506020604051808303816000875af115801562001379573d6000803e3d6000fd5b505050506040513d601f19601f820116820180604052508101906200139f919062002206565b620013ae57620013ae6200222a565b6040516335313c2160e11b81526001600160a01b038681166004830152821690636a627842906024016020604051808303816000875af1158015620013f7573d6000803e3d6000fd5b505050506040513d601f19601f820116820180604052508101906200141d9190620022e1565b91508234111562001439576200143933620005d7853462002256565b5096509650969350505050565b6000806000620014578585620019e5565b915091506000604051806020016200146f9062001d91565b601f1982820381018352601f909101166040819052620014939190602001620022fb565b604051602081830303815290604052805190602001209050868383604051602001620014e3929190606092831b6bffffffffffffffffffffffff1990811682529190921b16601482015260280190565b604051602081830303815290604052805190602001208260405160200162001540939291906001600160f81b0319815260609390931b6bffffffffffffffffffffffff191660018401526015830191909152603582015260550190565b60408051601f198184030181529190528051602090910120979650505050505050565b60005b6001835162001576919062002256565b8110156200174e5760008084838151811062001596576200159662002003565b602002602001015185846001620015ae919062002339565b81518110620015c157620015c162002003565b6020026020010151915091506000620015db8383620019e5565b509050600087620015ee86600162002339565b8151811062001601576200160162002003565b60200260200101519050600080836001600160a01b0316866001600160a01b031614620016315782600062001635565b6000835b91509150600060028a516200164b919062002256565b88106200165957886200169a565b6000546200169a906001600160a01b0316878c620016798c600262002339565b815181106200168c576200168c62002003565b602002602001015162001446565b600054909150620016b6906001600160a01b0316888862001446565b60405163022c0d9f60e01b815260048101859052602481018490526001600160a01b0383811660448301526080606483015260006084830152919091169063022c0d9f9060a401600060405180830381600087803b1580156200171857600080fd5b505af11580156200172d573d6000803e3d6000fd5b50505050505050505050508080620017459062002354565b91505062001566565b50505050565b604080516000808252602082019092526001600160a01b038416908390604051620017809190620022fb565b60006040518083038185875af1925050503d8060008114620017bf576040519150601f19603f3d011682016040523d82523d6000602084013e620017c4565b606091505b5050905080620017e75760405163067ecc5f60e01b815260040160405180910390fd5b505050565b6040516001600160a01b03838116602483015260448201839052600091829186169060640160408051601f198184030181529181526020820180516001600160e01b031663a9059cbb60e01b17905251620018489190620022fb565b6000604051808303816000865af19150503d806000811462001887576040519150601f19603f3d011682016040523d82523d6000602084013e6200188c565b606091505b5091509150811580620018be5750805115801590620018be575080806020019051810190620018bc919062002206565b155b15620018dd5760405163fb7f507960e01b815260040160405180910390fd5b5050505050565b6040516001600160a01b038481166024830152838116604483015260648201839052600091829187169060840160408051601f198184030181529181526020820180516001600160e01b03166323b872dd60e01b17905251620019489190620022fb565b6000604051808303816000865af19150503d806000811462001987576040519150601f19603f3d011682016040523d82523d6000602084013e6200198c565b606091505b5091509150811580620019be5750805115801590620019be575080806020019051810190620019bc919062002206565b155b15620019dd5760405163f405907160e01b815260040160405180910390fd5b505050505050565b600080826001600160a01b0316846001600160a01b03161062001a0a57828462001a0d565b83835b915091505b9250929050565b600080546040516334a2a5c360e11b81526001600160a01b0389811660048301528881166024830152839283929116906369454b8690604401602060405180830381865afa15801562001a70573d6000803e3d6000fd5b505050506040513d601f19601f8201168201806040525081019062001a96919062002372565b6001600160a01b0316141562001b23576000546040516364e329cb60e11b81526001600160a01b038a8116600483015289811660248301529091169063c9c65396906044016020604051808303816000875af115801562001afb573d6000803e3d6000fd5b505050506040513d601f19601f8201168201806040525081019062001b21919062002372565b505b62001b3388888888888862001b42565b90999098509650505050505050565b60008054604051633274946160e01b81526001600160a01b0391821660048201528882166024820152908716604482015281908190819073__$f036feae03741da3a31bd7f7f2ced4627c$__906332749461906064016040805180830381865af415801562001bb5573d6000803e3d6000fd5b505050506040513d601f19601f8201168201806040525081019062001bdb9190620022bc565b9150915081600014801562001bee575080155b1562001c0057879350869250620011ac565b604051632b58577b60e21b815260048101899052602481018390526044810182905260009073__$f036feae03741da3a31bd7f7f2ced4627c$__9063ad615dec90606401602060405180830381865af415801562001c62573d6000803e3d6000fd5b505050506040513d601f19601f8201168201806040525081019062001c889190620022e1565b905087811162001cbf5785811162001cb35760405163ef71d09160e01b815260040160405180910390fd5b88945092508262001d83565b604051632b58577b60e21b815260048101899052602481018390526044810184905260009073__$f036feae03741da3a31bd7f7f2ced4627c$__9063ad615dec90606401602060405180830381865af415801562001d21573d6000803e3d6000fd5b505050506040513d601f19601f8201168201806040525081019062001d479190620022e1565b90508981111562001d5c5762001d5c6200222a565b87811162001d7d57604051638dc525d160e01b815260040160405180910390fd5b94508793505b505050965096945050505050565b611fca806200239383390190565b60008083601f84011262001db257600080fd5b50813567ffffffffffffffff81111562001dcb57600080fd5b6020830191508360208260051b850101111562001a1257600080fd5b6001600160a01b038116811462001dfd57600080fd5b50565b6000806000806060858703121562001e1757600080fd5b84359350602085013567ffffffffffffffff81111562001e3657600080fd5b62001e448782880162001d9f565b909450925050604085013562001e5a8162001de7565b939692955090935050565b6020808252825182820181905260009190848201906040850190845b8181101562001e9f5783518352928401929184019160010162001e81565b50909695505050505050565b60008060008060008060c0878903121562001ec557600080fd5b863562001ed28162001de7565b9550602087013562001ee48162001de7565b945060408701359350606087013592506080870135915060a087013562001f0b8162001de7565b809150509295509295509295565b60008060008060006080868803121562001f3257600080fd5b8535945060208601359350604086013567ffffffffffffffff81111562001f5857600080fd5b62001f668882890162001d9f565b909450925050606086013562001f7c8162001de7565b809150509295509295909350565b600080600080600080600060e0888a03121562001fa657600080fd5b873562001fb38162001de7565b9650602088013562001fc58162001de7565b955060408801359450606088013593506080880135925060a0880135915060c088013562001ff38162001de7565b8091505092959891949750929550565b634e487b7160e01b600052603260045260246000fd5b6000602082840312156200202c57600080fd5b8135620020398162001de7565b9392505050565b6020808252601e908201527f5a756e69737761705632526f757465723a20494e56414c49445f504154480000604082015260600190565b6001600160a01b03858116825260208083018690526060604084018190528301849052600091859160808501845b87811015620020d0578435620020bb8162001de7565b841682529382019390820190600101620020a5565b509998505050505050505050565b634e487b7160e01b600052604160045260246000fd5b600060208083850312156200210857600080fd5b825167ffffffffffffffff808211156200212157600080fd5b818501915085601f8301126200213657600080fd5b8151818111156200214b576200214b620020de565b8060051b604051601f19603f83011681018181108582111715620021735762002173620020de565b6040529182528482019250838101850191888311156200219257600080fd5b938501935b82851015620021b25784518452938501939285019262002197565b98975050505050505050565b60208082526028908201527f5a756e69737761705632526f757465723a204558434553534956455f494e50556040820152671517d05353d5539560c21b606082015260800190565b6000602082840312156200221957600080fd5b815180151581146200203957600080fd5b634e487b7160e01b600052600160045260246000fd5b634e487b7160e01b600052601160045260246000fd5b6000828210156200226b576200226b62002240565b500390565b6020808252602c908201527f5a756e69737761705632526f757465723a20494e53554646494349454e545f4f60408201526b155514155517d05353d5539560a21b606082015260800190565b60008060408385031215620022d057600080fd5b505080516020909101519092909150565b600060208284031215620022f457600080fd5b5051919050565b6000825160005b818110156200231e576020818601810151858301520162002302565b818111156200232e576000828501525b509190910192915050565b600082198211156200234f576200234f62002240565b500190565b60006000198214156200236b576200236b62002240565b5060010190565b6000602082840312156200238557600080fd5b8151620020398162001de756fe60e06040523480156200001157600080fd5b50604080518082018252600c81526b29b430b330b3b4102830b4b960a11b60208083019182528351808501909452600484526329a4219960e11b90840152815191929160129162000066916000919062000150565b5081516200007c90600190602085019062000150565b5060ff81166080524660a052620000926200009f565b60c05250620002d7915050565b60007f8b73c3c69bb8fe3d512ecc4cf759cc79239f7b179b0ffacaa9a75d522b39400f6000604051620000d3919062000233565b60408051918290038220828201825260018352603160f81b6020938401528151928301939093528101919091527fc89efdaa54c0f20c7adf612882df0950f5a951637e0307cdcb4c672f298b8bc660608201524660808201523060a082015260c00160405160208183030381529060405280519060200120905090565b8280546200015e90620001f6565b90600052602060002090601f016020900481019282620001825760008555620001cd565b82601f106200019d57805160ff1916838001178555620001cd565b82800160010185558215620001cd579182015b82811115620001cd578251825591602001919060010190620001b0565b50620001db929150620001df565b5090565b5b80821115620001db5760008155600101620001e0565b600181811c908216806200020b57607f821691505b602082108114156200022d57634e487b7160e01b600052602260045260246000fd5b50919050565b600080835481600182811c9150808316806200025057607f831692505b60208084108214156200027157634e487b7160e01b86526022600452602486fd5b8180156200028857600181146200029a57620002c9565b60ff19861689528489019650620002c9565b60008a81526020902060005b86811015620002c15781548b820152908501908301620002a6565b505084890196505b509498975050505050505050565b60805160a05160c051611cc36200030760003960006109dd015260006109a80152600061025d0152611cc36000f3fe608060405234801561001057600080fd5b506004361061014d5760003560e01c80635909c0d5116100c357806395d89b411161007c57806395d89b4114610339578063a9059cbb14610341578063d21220a714610354578063d505accf14610367578063dd62ed3e1461037a578063fff6cae9146103a557600080fd5b80635909c0d5146102ac5780635a3d5493146102b55780636a627842146102be57806370a08231146102d15780637ecebe00146102f157806389afcb441461031157600080fd5b806318160ddd1161011557806318160ddd1461020757806323b872dd1461021e57806330adf81f14610231578063313ce567146102585780633644e51514610291578063485cc9551461029957600080fd5b8063022c0d9f1461015257806306fdde03146101675780630902f1ac14610185578063095ea7b3146101b95780630dfe1681146101dc575b600080fd5b6101656101603660046117f8565b6103ad565b005b61016f610798565b60405161017c91906118bc565b60405180910390f35b61018d610826565b604080516001600160701b03948516815293909216602084015263ffffffff169082015260600161017c565b6101cc6101c73660046118ef565b610850565b604051901515815260200161017c565b6006546101ef906001600160a01b031681565b6040516001600160a01b03909116815260200161017c565b61021060025481565b60405190815260200161017c565b6101cc61022c366004611919565b6108bc565b6102107f6e71edae12b1b97f4d1f60370fef10105fa2faae0126114a169c64845d6126c981565b61027f7f000000000000000000000000000000000000000000000000000000000000000081565b60405160ff909116815260200161017c565b6102106109a4565b6101656102a7366004611955565b6109ff565b61021060095481565b610210600a5481565b6102106102cc366004611988565b610a6d565b6102106102df366004611988565b60036020526000908152604090205481565b6102106102ff366004611988565b60056020526000908152604090205481565b61032461031f366004611988565b610ca5565b6040805192835260208301919091520161017c565b61016f610f7c565b6101cc61034f3660046118ef565b610f89565b6007546101ef906001600160a01b031681565b6101656103753660046119a3565b610fef565b610210610388366004611955565b600460209081526000928352604080842090915290825290205481565b610165611254565b600b5460ff16156103bd57600080fd5b600b805460ff19166001179055841580156103d6575083155b156103f4576040516342301c2360e01b815260040160405180910390fd5b6000806103ff610826565b5091509150816001600160701b03168711806104235750806001600160701b031686115b156104415760405163bb55fd2760e01b815260040160405180910390fd5b861561045e5760065461045e906001600160a01b0316868961134d565b851561047b5760075461047b906001600160a01b0316868861134d565b82156104e857604051630c68e5d560e41b81526001600160a01b0386169063c68e5d50906104b59033908b908b908a908a90600401611a16565b600060405180830381600087803b1580156104cf57600080fd5b505af11580156104e3573d6000803e3d6000fd5b505050505b6006546040516370a0823160e01b81523060048201526000916001600160a01b0316906370a0823190602401602060405180830381865afa158015610531573d6000803e3d6000fd5b505050506040513d601f19601f820116820180604052508101906105559190611a62565b6007546040516370a0823160e01b81523060048201529192506000916001600160a01b03909116906370a0823190602401602060405180830381865afa1580156105a3573d6000803e3d6000fd5b505050506040513d601f19601f820116820180604052508101906105c79190611a62565b6008549091506000906105e4908b906001600160701b0316611a91565b83116105f1576000610612565b600854610608908b906001600160701b0316611a91565b6106129084611a91565b600854909150600090610636908b90600160701b90046001600160701b0316611a91565b831161064357600061066b565b600854610661908b90600160701b90046001600160701b0316611a91565b61066b9084611a91565b905081158015610679575080155b156106975760405163098fb56160e01b815260040160405180910390fd5b60006106a4836003611aa8565b6106b0866103e8611aa8565b6106ba9190611a91565b905060006106c9836003611aa8565b6106d5866103e8611aa8565b6106df9190611a91565b90506106f76001600160701b03808916908a16611aa8565b61070490620f4240611aa8565b61070e8284611aa8565b101561072d57604051632f62f0d960e21b815260040160405180910390fd5b61073986868a8a61143c565b604080518e8152602081018e90526001600160a01b038d169133917f2a9237ff5aa599ef4c5ee4b1142b53429d5755e2685fe6288b2e3320202115f5910160405180910390a35050600b805460ff191690555050505050505050505050565b600080546107a590611ac7565b80601f01602080910402602001604051908101604052809291908181526020018280546107d190611ac7565b801561081e5780601f106107f35761010080835404028352916020019161081e565b820191906000526020600020905b81548152906001019060200180831161080157829003601f168201915b505050505081565b6008546001600160701b0380821692600160701b830490911691600160e01b900463ffffffff1690565b3360008181526004602090815260408083206001600160a01b038716808552925280832085905551919290917f8c5be1e5ebec7d5bd14f71427d1e84f3dd0314c0f7b2291e5b200ac8c7c3b925906108ab9086815260200190565b60405180910390a350600192915050565b6001600160a01b038316600090815260046020908152604080832033845290915281205460001914610921576001600160a01b03841660009081526004602090815260408083203384529091528120805484929061091b908490611a91565b90915550505b6001600160a01b03841660009081526003602052604081208054849290610949908490611a91565b90915550506001600160a01b0380841660008181526003602052604090819020805486019055519091861690600080516020611c6e833981519152906109929086815260200190565b60405180910390a35060019392505050565b60007f000000000000000000000000000000000000000000000000000000000000000046146109da576109d56115ba565b905090565b507f000000000000000000000000000000000000000000000000000000000000000090565b6006546001600160a01b0316151580610a2257506007546001600160a01b031615155b15610a3f5760405162dc149f60e41b815260040160405180910390fd5b600680546001600160a01b039384166001600160a01b03199182161790915560078054929093169116179055565b6000806000610a7a610826565b506006546040516370a0823160e01b81523060048201529294509092506000916001600160a01b03909116906370a0823190602401602060405180830381865afa158015610acc573d6000803e3d6000fd5b505050506040513d601f19601f82011682018060405250810190610af09190611a62565b6007546040516370a0823160e01b81523060048201529192506000916001600160a01b03909116906370a0823190602401602060405180830381865afa158015610b3e573d6000803e3d6000fd5b505050506040513d601f19601f82011682018060405250810190610b629190611a62565b90506000610b796001600160701b03861684611a91565b90506000610b906001600160701b03861684611a91565b905060025460001415610bd0576103e8610bb2610bad8385611aa8565b611669565b610bbc9190611a91565b9650610bcb60006103e86116d9565b610c1f565b610c1c866001600160701b031660025484610beb9190611aa8565b610bf59190611b12565b866001600160701b031660025484610c0d9190611aa8565b610c179190611b12565b611733565b96505b60008711610c4057604051633489be7560e21b815260040160405180910390fd5b610c4a88886116d9565b610c568484888861143c565b60408051838152602081018390526001600160a01b038a16917f4c209b5fc8ad50758f13e2e1088ba56a560dff690a1c6fef26394f4c03821c4f910160405180910390a2505050505050919050565b6006546040516370a0823160e01b8152306004820152600091829182916001600160a01b0316906370a0823190602401602060405180830381865afa158015610cf2573d6000803e3d6000fd5b505050506040513d601f19601f82011682018060405250810190610d169190611a62565b6007546040516370a0823160e01b81523060048201529192506000916001600160a01b03909116906370a0823190602401602060405180830381865afa158015610d64573d6000803e3d6000fd5b505050506040513d601f19601f82011682018060405250810190610d889190611a62565b3060009081526003602052604090205460025491925090610da98483611aa8565b610db39190611b12565b600254909550610dc38383611aa8565b610dcd9190611b12565b9350841580610dda575083155b15610df85760405163749383ad60e01b815260040160405180910390fd5b610e02308261174b565b600654610e19906001600160a01b0316878761134d565b600754610e30906001600160a01b0316878661134d565b6006546040516370a0823160e01b81523060048201526001600160a01b03909116906370a0823190602401602060405180830381865afa158015610e78573d6000803e3d6000fd5b505050506040513d601f19601f82011682018060405250810190610e9c9190611a62565b6007546040516370a0823160e01b81523060048201529194506001600160a01b0316906370a0823190602401602060405180830381865afa158015610ee5573d6000803e3d6000fd5b505050506040513d601f19601f82011682018060405250810190610f099190611a62565b9150600080610f16610826565b5091509150610f278585848461143c565b60408051888152602081018890526001600160a01b038a1681830152905133917fdccd412f0b1252819cb1fd330b93224ca42612892bb3f4f789976e6d81936496919081900360600190a25050505050915091565b600180546107a590611ac7565b33600090815260036020526040812080548391908390610faa908490611a91565b90915550506001600160a01b03831660008181526003602052604090819020805485019055513390600080516020611c6e833981519152906108ab9086815260200190565b428410156110445760405162461bcd60e51b815260206004820152601760248201527f5045524d49545f444541444c494e455f4558504952454400000000000000000060448201526064015b60405180910390fd5b600061104e6109a4565b6001600160a01b0389811660008181526005602090815260409182902080546001810190915582517f6e71edae12b1b97f4d1f60370fef10105fa2faae0126114a169c64845d6126c98184015280840194909452938c166060840152608083018b905260a083019390935260c08083018a90528151808403909101815260e08301909152805192019190912061190160f01b6101008301526101028201929092526101228101919091526101420160408051601f198184030181528282528051602091820120600080855291840180845281905260ff88169284019290925260608301869052608083018590529092509060019060a0016020604051602081039080840390855afa158015611167573d6000803e3d6000fd5b5050604051601f1901519150506001600160a01b0381161580159061119d5750886001600160a01b0316816001600160a01b0316145b6111e95760405162461bcd60e51b815260206004820152601860248201527f494e56414c49445f5045524d49545f5349474e41545552450000000000000000604482015260640161103b565b6001600160a01b0390811660009081526004602090815260408083208b8516808552908352928190208a905551898152919350918a16917f8c5be1e5ebec7d5bd14f71427d1e84f3dd0314c0f7b2291e5b200ac8c7c3b925910160405180910390a350505050505050565b60008061125f610826565b506006546040516370a0823160e01b8152306004820152929450909250611349916001600160a01b03909116906370a0823190602401602060405180830381865afa1580156112b2573d6000803e3d6000fd5b505050506040513d601f19601f820116820180604052508101906112d69190611a62565b6007546040516370a0823160e01b81523060048201526001600160a01b03909116906370a0823190602401602060405180830381865afa15801561131e573d6000803e3d6000fd5b505050506040513d601f19601f820116820180604052508101906113429190611a62565b848461143c565b5050565b6040516001600160a01b03838116602483015260448201839052600091829186169060640160408051601f198184030181529181526020820180516001600160e01b031663a9059cbb60e01b179052516113a79190611b26565b6000604051808303816000865af19150503d80600081146113e4576040519150601f19603f3d011682016040523d82523d6000602084013e6113e9565b606091505b509150915081158061141757508051158015906114175750808060200190518101906114159190611b42565b155b15611435576040516312171d8360e31b815260040160405180910390fd5b5050505050565b6001600160701b0384118061145757506001600160701b0383115b15611475576040516389560ca160e01b815260040160405180910390fd5b60085463ffffffff600160e01b90910481164203908116158015906114a357506000836001600160701b0316115b80156114b857506000826001600160701b0316115b15611523578063ffffffff166114e0846114d1856117ad565b6001600160e01b0316906117cc565b600980546001600160e01b03929092169290920201905563ffffffff811661150b836114d1866117ad565b600a80546001600160e01b0392909216929092020190555b506008805463ffffffff4216600160e01b026001600160e01b036001600160701b03878116600160701b9081026001600160e01b03199095168a83161794909417918216831794859055604080519382169282169290921783529290930490911660208201527fcf2aa50876cdfbb541206f89af0ee78d44a2abf8d328e37fa4917f982149848a910160405180910390a150505050565b60007f8b73c3c69bb8fe3d512ecc4cf759cc79239f7b179b0ffacaa9a75d522b39400f60006040516115ec9190611b64565b60408051918290038220828201825260018352603160f81b6020938401528151928301939093528101919091527fc89efdaa54c0f20c7adf612882df0950f5a951637e0307cdcb4c672f298b8bc660608201524660808201523060a082015260c00160405160208183030381529060405280519060200120905090565b600060038211156116ca5750806000611683600283611b12565b61168e906001611c00565b90505b818110156116c4579050806002816116a98186611b12565b6116b39190611c00565b6116bd9190611b12565b9050611691565b50919050565b81156116d4575060015b919050565b80600260008282546116eb9190611c00565b90915550506001600160a01b038216600081815260036020908152604080832080548601905551848152600080516020611c6e83398151915291015b60405180910390a35050565b60008183106117425781611744565b825b9392505050565b6001600160a01b03821660009081526003602052604081208054839290611773908490611a91565b90915550506002805482900390556040518181526000906001600160a01b03841690600080516020611c6e83398151915290602001611727565b60006117c6600160701b6001600160701b038416611c18565b92915050565b60006117446001600160701b03831684611c47565b80356001600160a01b03811681146116d457600080fd5b60008060008060006080868803121561181057600080fd5b8535945060208601359350611827604087016117e1565b9250606086013567ffffffffffffffff8082111561184457600080fd5b818801915088601f83011261185857600080fd5b81358181111561186757600080fd5b89602082850101111561187957600080fd5b9699959850939650602001949392505050565b60005b838110156118a757818101518382015260200161188f565b838111156118b6576000848401525b50505050565b60208152600082518060208401526118db81604085016020870161188c565b601f01601f19169190910160400192915050565b6000806040838503121561190257600080fd5b61190b836117e1565b946020939093013593505050565b60008060006060848603121561192e57600080fd5b611937846117e1565b9250611945602085016117e1565b9150604084013590509250925092565b6000806040838503121561196857600080fd5b611971836117e1565b915061197f602084016117e1565b90509250929050565b60006020828403121561199a57600080fd5b611744826117e1565b600080600080600080600060e0888a0312156119be57600080fd5b6119c7886117e1565b96506119d5602089016117e1565b95506040880135945060608801359350608088013560ff811681146119f957600080fd5b9699959850939692959460a0840135945060c09093013592915050565b60018060a01b038616815284602082015283604082015260806060820152816080820152818360a0830137600081830160a090810191909152601f909201601f19160101949350505050565b600060208284031215611a7457600080fd5b5051919050565b634e487b7160e01b600052601160045260246000fd5b600082821015611aa357611aa3611a7b565b500390565b6000816000190483118215151615611ac257611ac2611a7b565b500290565b600181811c90821680611adb57607f821691505b602082108114156116c457634e487b7160e01b600052602260045260246000fd5b634e487b7160e01b600052601260045260246000fd5b600082611b2157611b21611afc565b500490565b60008251611b3881846020870161188c565b9190910192915050565b600060208284031215611b5457600080fd5b8151801515811461174457600080fd5b600080835481600182811c915080831680611b8057607f831692505b6020808410821415611ba057634e487b7160e01b86526022600452602486fd5b818015611bb45760018114611bc557611bf2565b60ff19861689528489019650611bf2565b60008a81526020902060005b86811015611bea5781548b820152908501908301611bd1565b505084890196505b509498975050505050505050565b60008219821115611c1357611c13611a7b565b500190565b60006001600160e01b0382811684821681151582840482111615611c3e57611c3e611a7b565b02949350505050565b60006001600160e01b0383811680611c6157611c61611afc565b9216919091049291505056feddf252ad1be2c89b69c2b068fc378daa952ba7f163c4a11628f55a4df523b3efa26469706673582212208c5cc1961f9afdd33da55c07929b06afcfa94869d0dda100e46cc5f13c212c8064736f6c634300080a0033a2646970667358221220ea08fc976087c3357fdd4cb129c7f96db2e1e20ff963acf3ffd20903265d89e364736f6c634300080a0033",
  "linkReferences": {
    "contracts/ZuniswapV2Library.sol": {
      "ZuniswapV2Library": [
        {
          "length": 20,
          "start": 939
        },
        {
          "length": 20,
          "start": 1829
        },
        {
          "length": 20,
          "start": 2797
        },
        {
          "length": 20,
          "start": 3584
        },
        {
          "length": 20,
          "start": 3799
        },
        {
          "length": 20,
          "start": 4120
        },
        {
          "length": 20,
          "start": 7238
        },
        {
          "length": 20,
          "start": 7410
        },
        {
          "length": 20,
          "start": 7601
        }
      ]
    }
  },
  "deployedLinkReferences": {
    "contracts/ZuniswapV2Library.sol": {
      "ZuniswapV2Library": [
        {
          "length": 20,
          "start": 736
        },
        {
          "length": 20,
          "start": 1626
        },
        {
          "length": 20,
          "start": 2594
        },
        {
          "length": 20,
          "start": 3381
        },
        {
          "length": 20,
          "start": 3596
        },
        {
          "length": 20,
          "start": 3917
        },
        {
          "length": 20,
          "start": 7035
        },
        {
          "length": 20,
          "start": 7207
        },
        {
          "length": 20,
          "start": 7398
        }
      ]
    }
  }
}