{
  "_format": "hh-sol-artifact-1",
  "contractName": "GLXSwapV2Factory",
  "sourceName": "contracts/GLXSwapV2Factory.sol",
  "abi": [
    {
      "inputs": [
        {
          "internalType": "address",
          "name": "_feeToSetter",
          "type": "address"
        }
      ],
      "stateMutability": "nonpayable",
      "type": "constructor"
    },
    {
      "inputs": [],
      "name": "IdenticalAddresses",
      "type": "error"
    },
    {
      "inputs": [],
      "name": "PairExists",
      "type": "error"
    },
    {
      "inputs": [],
      "name": "WrongWallet",
      "type": "error"
    },
    {
      "inputs": [],
      "name": "ZeroAddress",
      "type": "error"
    },
    {
      "anonymous": false,
      "inputs": [
        {
          "indexed": true,
          "internalType": "address",
          "name": "token0",
          "type": "address"
        },
        {
          "indexed": true,
          "internalType": "address",
          "name": "token1",
          "type": "address"
        },
        {
          "indexed": false,
          "internalType": "address",
          "name": "pair",
          "type": "address"
        },
        {
          "indexed": false,
          "internalType": "uint256",
          "name": "",
          "type": "uint256"
        }
      ],
      "name": "PairCreated",
      "type": "event"
    },
    {
      "inputs": [
        {
          "internalType": "uint256",
          "name": "",
          "type": "uint256"
        }
      ],
      "name": "allPairs",
      "outputs": [
        {
          "internalType": "address",
          "name": "",
          "type": "address"
        }
      ],
      "stateMutability": "view",
      "type": "function"
    },
    {
      "inputs": [],
      "name": "allPairsLength",
      "outputs": [
        {
          "internalType": "uint256",
          "name": "",
          "type": "uint256"
        }
      ],
      "stateMutability": "nonpayable",
      "type": "function"
    },
    {
      "inputs": [
        {
          "internalType": "address",
          "name": "tokenA",
          "type": "address"
        },
        {
          "internalType": "address",
          "name": "tokenB",
          "type": "address"
        }
      ],
      "name": "createPair",
      "outputs": [
        {
          "internalType": "address",
          "name": "pair",
          "type": "address"
        }
      ],
      "stateMutability": "nonpayable",
      "type": "function"
    },
    {
      "inputs": [],
      "name": "feeTo",
      "outputs": [
        {
          "internalType": "address",
          "name": "",
          "type": "address"
        }
      ],
      "stateMutability": "view",
      "type": "function"
    },
    {
      "inputs": [],
      "name": "feeToSetter",
      "outputs": [
        {
          "internalType": "address",
          "name": "",
          "type": "address"
        }
      ],
      "stateMutability": "view",
      "type": "function"
    },
    {
      "inputs": [
        {
          "internalType": "address",
          "name": "",
          "type": "address"
        },
        {
          "internalType": "address",
          "name": "",
          "type": "address"
        }
      ],
      "name": "pairs",
      "outputs": [
        {
          "internalType": "address",
          "name": "",
          "type": "address"
        }
      ],
      "stateMutability": "view",
      "type": "function"
    },
    {
      "inputs": [
        {
          "internalType": "address",
          "name": "_feeTo",
          "type": "address"
        }
      ],
      "name": "setFeeTo",
      "outputs": [],
      "stateMutability": "nonpayable",
      "type": "function"
    },
    {
      "inputs": [
        {
          "internalType": "address",
          "name": "_feeToSetter",
          "type": "address"
        }
      ],
      "name": "setFeeToSetter",
      "outputs": [],
      "stateMutability": "nonpayable",
      "type": "function"
    }
  ],
  "bytecode": "0x608060405234801561001057600080fd5b50604051612a20380380612a2083398101604081905261002f91610054565b600180546001600160a01b0319166001600160a01b0392909216919091179055610084565b60006020828403121561006657600080fd5b81516001600160a01b038116811461007d57600080fd5b9392505050565b61298d806100936000396000f3fe608060405234801561001057600080fd5b50600436106100885760003560e01c806369454b861161005b57806369454b86146100f4578063a2e74af614610128578063c9c653961461013d578063f46901ed1461015057600080fd5b8063017e7e581461008d578063094b7415146100bd5780631e3dd18b146100d0578063574f2ba3146100e3575b600080fd5b6000546100a0906001600160a01b031681565b6040516001600160a01b0390911681526020015b60405180910390f35b6001546100a0906001600160a01b031681565b6100a06100de3660046104ad565b610163565b6003546040519081526020016100b4565b6100a06101023660046104e2565b60026020908152600092835260408084209091529082529020546001600160a01b031681565b61013b610136366004610515565b61018d565b005b6100a061014b3660046104e2565b6101da565b61013b61015e366004610515565b610453565b6003818154811061017357600080fd5b6000918252602090912001546001600160a01b0316905081565b6001546001600160a01b031633146101b857604051636361c2e960e01b815260040160405180910390fd5b600180546001600160a01b0319166001600160a01b0392909216919091179055565b6000816001600160a01b0316836001600160a01b0316141561020f57604051630bd969eb60e41b815260040160405180910390fd5b600080836001600160a01b0316856001600160a01b031610610232578385610235565b84845b90925090506001600160a01b0382166102615760405163d92e233d60e01b815260040160405180910390fd5b6001600160a01b038281166000908152600260209081526040808320858516845290915290205416156102a757604051633d77e89160e01b815260040160405180910390fd5b6000604051806020016102b9906104a0565b601f1982820381018352601f9091011660408190526bffffffffffffffffffffffff19606086811b8216602084015285901b166034820152909150600090604801604051602081830303815290604052805190602001209050808251602084016000f560405163485cc95560e01b81526001600160a01b03868116600483015285811660248301529196509086169063485cc95590604401600060405180830381600087803b15801561036b57600080fd5b505af115801561037f573d6000803e3d6000fd5b505050506001600160a01b0384811660008181526002602081815260408084208987168086529083528185208054978d166001600160a01b031998891681179091559383528185208686528352818520805488168517905560038054600181018255958190527fc2575a0e9e593c00f959f8c92f12db2869c3395a3b0502d05e2516446f71f85b9095018054909716841790965592548351928352908201527f0d3648bd0f6ba80134a33ba9275ac585d9d315f0ad8355cddefde31afa28d0e9910160405180910390a35050505092915050565b6001546001600160a01b0316331461047e57604051636361c2e960e01b815260040160405180910390fd5b600080546001600160a01b0319166001600160a01b0392909216919091179055565b6124208061053883390190565b6000602082840312156104bf57600080fd5b5035919050565b80356001600160a01b03811681146104dd57600080fd5b919050565b600080604083850312156104f557600080fd5b6104fe836104c6565b915061050c602084016104c6565b90509250929050565b60006020828403121561052757600080fd5b610530826104c6565b939250505056fe60e06040523480156200001157600080fd5b50604080518082018252600881526723a62c102830b4b960c11b60208083019182528351808501909452600484526323a62c1960e11b9084015281519192916012916200006291600091906200015d565b508151620000789060019060208501906200015d565b5060ff81166080524660a0526200008e620000ac565b60c0525050600680546001600160a01b0319163317905550620002e4565b60007f8b73c3c69bb8fe3d512ecc4cf759cc79239f7b179b0ffacaa9a75d522b39400f6000604051620000e0919062000240565b60408051918290038220828201825260018352603160f81b6020938401528151928301939093528101919091527fc89efdaa54c0f20c7adf612882df0950f5a951637e0307cdcb4c672f298b8bc660608201524660808201523060a082015260c00160405160208183030381529060405280519060200120905090565b8280546200016b9062000203565b90600052602060002090601f0160209004810192826200018f5760008555620001da565b82601f10620001aa57805160ff1916838001178555620001da565b82800160010185558215620001da579182015b82811115620001da578251825591602001919060010190620001bd565b50620001e8929150620001ec565b5090565b5b80821115620001e85760008155600101620001ed565b600181811c908216806200021857607f821691505b602082108114156200023a57634e487b7160e01b600052602260045260246000fd5b50919050565b600080835481600182811c9150808316806200025d57607f831692505b60208084108214156200027e57634e487b7160e01b86526022600452602486fd5b818015620002955760018114620002a757620002d6565b60ff19861689528489019650620002d6565b60008a81526020902060005b86811015620002ce5781548b820152908501908301620002b3565b505084890196505b509498975050505050505050565b60805160a05160c05161210c620003146000396000610a5901526000610a240152600061029e015261210c6000f3fe608060405234801561001057600080fd5b506004361061018e5760003560e01c80636a627842116100de578063a9059cbb11610097578063d21220a711610071578063d21220a7146103c4578063d505accf146103d7578063dd62ed3e146103ea578063fff6cae91461041557600080fd5b8063a9059cbb1461038b578063bc25cf771461039e578063c45a0155146103b157600080fd5b80636a627842146102ff57806370a08231146103125780637464fc3d146103325780637ecebe001461033b57806389afcb441461035b57806395d89b411461038357600080fd5b806323b872dd1161014b5780633644e515116101255780633644e515146102d2578063485cc955146102da5780635909c0d5146102ed5780635a3d5493146102f657600080fd5b806323b872dd1461025f57806330adf81f14610272578063313ce5671461029957600080fd5b8063022c0d9f1461019357806306fdde03146101a85780630902f1ac146101c6578063095ea7b3146101fa5780630dfe16811461021d57806318160ddd14610248575b600080fd5b6101a66101a1366004611c0f565b61041d565b005b6101b0610814565b6040516101bd9190611cd5565b60405180910390f35b6101ce6108a2565b604080516001600160701b03948516815293909216602084015263ffffffff16908201526060016101bd565b61020d610208366004611d08565b6108cc565b60405190151581526020016101bd565b600754610230906001600160a01b031681565b6040516001600160a01b0390911681526020016101bd565b61025160025481565b6040519081526020016101bd565b61020d61026d366004611d34565b610938565b6102517f6e71edae12b1b97f4d1f60370fef10105fa2faae0126114a169c64845d6126c981565b6102c07f000000000000000000000000000000000000000000000000000000000000000081565b60405160ff90911681526020016101bd565b610251610a20565b6101a66102e8366004611d75565b610a7b565b610251600a5481565b610251600b5481565b61025161030d366004611dae565b610b69565b610251610320366004611dae565b60036020526000908152604090205481565b610251600c5481565b610251610349366004611dae565b60056020526000908152604090205481565b61036e610369366004611dae565b610dd9565b604080519283526020830191909152016101bd565b6101b0611123565b61020d610399366004611d08565b611130565b6101a66103ac366004611dae565b611196565b600654610230906001600160a01b031681565b600854610230906001600160a01b031681565b6101a66103e5366004611dcb565b6112a4565b6102516103f8366004611d75565b600460209081526000928352604080842090915290825290205481565b6101a6611504565b600d5460ff161561042d57600080fd5b600d805460ff1916600117905584158015610446575083155b15610464576040516342301c2360e01b815260040160405180910390fd5b60008061046f6108a2565b5091509150816001600160701b03168711806104935750806001600160701b031686115b156104b15760405163bb55fd2760e01b815260040160405180910390fd5b60008088156104d1576007546104d1906001600160a01b0316888b611624565b87156104ee576008546104ee906001600160a01b0316888a611624565b841561055b5760405163156ce6bd60e01b81526001600160a01b0388169063156ce6bd906105289033908d908d908c908c90600401611e42565b600060405180830381600087803b15801561054257600080fd5b505af1158015610556573d6000803e3d6000fd5b505050505b6007546040516370a0823160e01b81523060048201526001600160a01b03909116906370a0823190602401602060405180830381865afa1580156105a3573d6000803e3d6000fd5b505050506040513d601f19601f820116820180604052508101906105c79190611e8e565b6008546040516370a0823160e01b81523060048201529193506001600160a01b0316906370a0823190602401602060405180830381865afa158015610610573d6000803e3d6000fd5b505050506040513d601f19601f820116820180604052508101906106349190611e8e565b600954909150600090610651908b906001600160701b0316611ebd565b831161065e57600061067f565b600954610675908b906001600160701b0316611ebd565b61067f9084611ebd565b6009549091506000906106a3908b90600160701b90046001600160701b0316611ebd565b83116106b05760006106d8565b6009546106ce908b90600160701b90046001600160701b0316611ebd565b6106d89084611ebd565b9050811580156106e6575080155b156107045760405163098fb56160e01b815260040160405180910390fd5b6000610711836003611ed4565b61071d866103e8611ed4565b6107279190611ebd565b90506000610736836003611ed4565b610742866103e8611ed4565b61074c9190611ebd565b90506107646001600160701b03808916908a16611ed4565b61077190620f4240611ed4565b61077b8284611ed4565b101561079a57604051632f62f0d960e21b815260040160405180910390fd5b50506107a884848888611713565b60408051838152602081018390529081018c9052606081018b90526001600160a01b038a169033907fd78ad95fa46c994b6551d0da85fc275fe613ce37657fb8d5e3d130840159d8229060800160405180910390a35050600d805460ff19169055505050505050505050565b6000805461082190611ef3565b80601f016020809104026020016040519081016040528092919081815260200182805461084d90611ef3565b801561089a5780601f1061086f5761010080835404028352916020019161089a565b820191906000526020600020905b81548152906001019060200180831161087d57829003601f168201915b505050505081565b6009546001600160701b0380821692600160701b830490911691600160e01b900463ffffffff1690565b3360008181526004602090815260408083206001600160a01b038716808552925280832085905551919290917f8c5be1e5ebec7d5bd14f71427d1e84f3dd0314c0f7b2291e5b200ac8c7c3b925906109279086815260200190565b60405180910390a350600192915050565b6001600160a01b03831660009081526004602090815260408083203384529091528120546000191461099d576001600160a01b038416600090815260046020908152604080832033845290915281208054849290610997908490611ebd565b90915550505b6001600160a01b038416600090815260036020526040812080548492906109c5908490611ebd565b90915550506001600160a01b03808416600081815260036020526040908190208054860190555190918616906000805160206120b783398151915290610a0e9086815260200190565b60405180910390a35060019392505050565b60007f00000000000000000000000000000000000000000000000000000000000000004614610a5657610a51611891565b905090565b507f000000000000000000000000000000000000000000000000000000000000000090565b6007546001600160a01b0316151580610a9e57506008546001600160a01b031615155b15610abb5760405162dc149f60e41b815260040160405180910390fd5b6006546001600160a01b03163314610b105760405162461bcd60e51b815260206004820152601360248201527223a62c1029aba0a81d102327a92124a22222a760691b60448201526064015b60405180910390fd5b6006546001600160a01b03163314610b3b57604051632893247960e01b815260040160405180910390fd5b600780546001600160a01b039384166001600160a01b03199182161790915560088054929093169116179055565b600d5460009060ff1615610b7c57600080fd5b600d805460ff19166001179055600080610b946108a2565b506007546040516370a0823160e01b81523060048201529294509092506000916001600160a01b03909116906370a0823190602401602060405180830381865afa158015610be6573d6000803e3d6000fd5b505050506040513d601f19601f82011682018060405250810190610c0a9190611e8e565b6008546040516370a0823160e01b81523060048201529192506000916001600160a01b03909116906370a0823190602401602060405180830381865afa158015610c58573d6000803e3d6000fd5b505050506040513d601f19601f82011682018060405250810190610c7c9190611e8e565b90506000610c936001600160701b03861684611ebd565b90506000610caa6001600160701b03861684611ebd565b90506000610cb88787611940565b905060025460001415610cf8576103e8610cda610cd58486611ed4565b611a7f565b610ce49190611ebd565b9750610cf360006103e8611aef565b610d47565b610d44876001600160701b031660025485610d139190611ed4565b610d1d9190611f3e565b876001600160701b031660025485610d359190611ed4565b610d3f9190611f3e565b611b49565b97505b60008811610d6857604051633489be7560e21b815260040160405180910390fd5b610d728989611aef565b610d7e85858989611713565b60408051848152602081018490526001600160a01b038b16917f4c209b5fc8ad50758f13e2e1088ba56a560dff690a1c6fef26394f4c03821c4f910160405180910390a25050600d805460ff19169055509395945050505050565b600d54600090819060ff1615610dee57600080fd5b600d805460ff19166001179055600080610e066108a2565b506007546040516370a0823160e01b81523060048201529294509092506000916001600160a01b03909116906370a0823190602401602060405180830381865afa158015610e58573d6000803e3d6000fd5b505050506040513d601f19601f82011682018060405250810190610e7c9190611e8e565b6008546040516370a0823160e01b81523060048201529192506000916001600160a01b03909116906370a0823190602401602060405180830381865afa158015610eca573d6000803e3d6000fd5b505050506040513d601f19601f82011682018060405250810190610eee9190611e8e565b30600090815260036020526040812054919250610f0b8686611940565b600254909150610f1b8584611ed4565b610f259190611f3e565b600254909850610f358484611ed4565b610f3f9190611f3e565b9650871580610f4c575086155b15610f6a5760405163749383ad60e01b815260040160405180910390fd5b610f743083611b61565b600754610f8b906001600160a01b03168a8a611624565b600854610fa2906001600160a01b03168a89611624565b6007546040516370a0823160e01b81523060048201526001600160a01b03909116906370a0823190602401602060405180830381865afa158015610fea573d6000803e3d6000fd5b505050506040513d601f19601f8201168201806040525081019061100e9190611e8e565b6008546040516370a0823160e01b81523060048201529195506001600160a01b0316906370a0823190602401602060405180830381865afa158015611057573d6000803e3d6000fd5b505050506040513d601f19601f8201168201806040525081019061107b9190611e8e565b92506000806110886108a2565b509150915061109986868484611713565b82156110c2576009546110be906001600160701b03600160701b820481169116611ed4565b600c555b604080518b8152602081018b90526001600160a01b038d169133917fdccd412f0b1252819cb1fd330b93224ca42612892bb3f4f789976e6d81936496910160405180910390a35050600d805460ff1916905550959794965093945050505050565b6001805461082190611ef3565b33600090815260036020526040812080548391908390611151908490611ebd565b90915550506001600160a01b038316600081815260036020526040908190208054850190555133906000805160206120b7833981519152906109279086815260200190565b600d5460ff16156111a657600080fd5b600d805460ff191660011790556007546008546009546040516370a0823160e01b81523060048201526001600160a01b03938416939092169161124d91849186916001600160701b03169083906370a08231906024015b602060405180830381865afa15801561121a573d6000803e3d6000fd5b505050506040513d601f19601f8201168201806040525081019061123e9190611e8e565b6112489190611ebd565b611624565b6009546040516370a0823160e01b81523060048201526112959183918691600160701b90046001600160701b0316906001600160a01b038416906370a08231906024016111fd565b5050600d805460ff1916905550565b428410156112f45760405162461bcd60e51b815260206004820152601760248201527f5045524d49545f444541444c494e455f455850495245440000000000000000006044820152606401610b07565b60006112fe610a20565b6001600160a01b0389811660008181526005602090815260409182902080546001810190915582517f6e71edae12b1b97f4d1f60370fef10105fa2faae0126114a169c64845d6126c98184015280840194909452938c166060840152608083018b905260a083019390935260c08083018a90528151808403909101815260e08301909152805192019190912061190160f01b6101008301526101028201929092526101228101919091526101420160408051601f198184030181528282528051602091820120600080855291840180845281905260ff88169284019290925260608301869052608083018590529092509060019060a0016020604051602081039080840390855afa158015611417573d6000803e3d6000fd5b5050604051601f1901519150506001600160a01b0381161580159061144d5750886001600160a01b0316816001600160a01b0316145b6114995760405162461bcd60e51b815260206004820152601860248201527f494e56414c49445f5045524d49545f5349474e415455524500000000000000006044820152606401610b07565b6001600160a01b0390811660009081526004602090815260408083208b8516808552908352928190208a905551898152919350918a16917f8c5be1e5ebec7d5bd14f71427d1e84f3dd0314c0f7b2291e5b200ac8c7c3b925910160405180910390a350505050505050565b600d5460ff161561151457600080fd5b600d805460ff1916600117905560008061152c6108a2565b506007546040516370a0823160e01b8152306004820152929450909250611616916001600160a01b03909116906370a0823190602401602060405180830381865afa15801561157f573d6000803e3d6000fd5b505050506040513d601f19601f820116820180604052508101906115a39190611e8e565b6008546040516370a0823160e01b81523060048201526001600160a01b03909116906370a0823190602401602060405180830381865afa1580156115eb573d6000803e3d6000fd5b505050506040513d601f19601f8201168201806040525081019061160f9190611e8e565b8484611713565b5050600d805460ff19169055565b6040516001600160a01b03838116602483015260448201839052600091829186169060640160408051601f198184030181529181526020820180516001600160e01b031663a9059cbb60e01b1790525161167e9190611f52565b6000604051808303816000865af19150503d80600081146116bb576040519150601f19603f3d011682016040523d82523d6000602084013e6116c0565b606091505b50915091508115806116ee57508051158015906116ee5750808060200190518101906116ec9190611f6e565b155b1561170c576040516312171d8360e31b815260040160405180910390fd5b5050505050565b6001600160701b0384118061172e57506001600160701b0383115b1561174c576040516389560ca160e01b815260040160405180910390fd5b60095463ffffffff600160e01b909104811642039081161580159061177a57506000836001600160701b0316115b801561178f57506000826001600160701b0316115b156117fa578063ffffffff166117b7846117a885611bc3565b6001600160e01b031690611be2565b600a80546001600160e01b03929092169290920201905563ffffffff81166117e2836117a886611bc3565b600b80546001600160e01b0392909216929092020190555b506009805463ffffffff4216600160e01b026001600160e01b036001600160701b03878116600160701b9081026001600160e01b03199095168a83161794909417918216831794859055604080519382169282169290921783529290930490911660208201527fcf2aa50876cdfbb541206f89af0ee78d44a2abf8d328e37fa4917f982149848a910160405180910390a150505050565b60007f8b73c3c69bb8fe3d512ecc4cf759cc79239f7b179b0ffacaa9a75d522b39400f60006040516118c39190611f90565b60408051918290038220828201825260018352603160f81b6020938401528151928301939093528101919091527fc89efdaa54c0f20c7adf612882df0950f5a951637e0307cdcb4c672f298b8bc660608201524660808201523060a082015260c00160405160208183030381529060405280519060200120905090565b600080600660009054906101000a90046001600160a01b03166001600160a01b031663017e7e586040518163ffffffff1660e01b8152600401602060405180830381865afa158015611996573d6000803e3d6000fd5b505050506040513d601f19601f820116820180604052508101906119ba919061202c565b600c546001600160a01b038216158015945091925090611a6b578015611a665760006119f5610cd56001600160701b03808816908916611ed4565b90506000611a0283611a7f565b905080821115611a63576000611a188284611ebd565b600254611a259190611ed4565b9050600082611a35856005611ed4565b611a3f9190612049565b90506000611a4d8284611f3e565b90508015611a5f57611a5f8782611aef565b5050505b50505b611a77565b8015611a77576000600c555b505092915050565b60006003821115611ae05750806000611a99600283611f3e565b611aa4906001612049565b90505b81811015611ada57905080600281611abf8186611f3e565b611ac99190612049565b611ad39190611f3e565b9050611aa7565b50919050565b8115611aea575060015b919050565b8060026000828254611b019190612049565b90915550506001600160a01b0382166000818152600360209081526040808320805486019055518481526000805160206120b783398151915291015b60405180910390a35050565b6000818310611b585781611b5a565b825b9392505050565b6001600160a01b03821660009081526003602052604081208054839290611b89908490611ebd565b90915550506002805482900390556040518181526000906001600160a01b038416906000805160206120b783398151915290602001611b3d565b6000611bdc600160701b6001600160701b038416612061565b92915050565b6000611b5a6001600160701b03831684612090565b6001600160a01b0381168114611c0c57600080fd5b50565b600080600080600060808688031215611c2757600080fd5b85359450602086013593506040860135611c4081611bf7565b9250606086013567ffffffffffffffff80821115611c5d57600080fd5b818801915088601f830112611c7157600080fd5b813581811115611c8057600080fd5b896020828501011115611c9257600080fd5b9699959850939650602001949392505050565b60005b83811015611cc0578181015183820152602001611ca8565b83811115611ccf576000848401525b50505050565b6020815260008251806020840152611cf4816040850160208701611ca5565b601f01601f19169190910160400192915050565b60008060408385031215611d1b57600080fd5b8235611d2681611bf7565b946020939093013593505050565b600080600060608486031215611d4957600080fd5b8335611d5481611bf7565b92506020840135611d6481611bf7565b929592945050506040919091013590565b60008060408385031215611d8857600080fd5b8235611d9381611bf7565b91506020830135611da381611bf7565b809150509250929050565b600060208284031215611dc057600080fd5b8135611b5a81611bf7565b600080600080600080600060e0888a031215611de657600080fd5b8735611df181611bf7565b96506020880135611e0181611bf7565b95506040880135945060608801359350608088013560ff81168114611e2557600080fd5b9699959850939692959460a0840135945060c09093013592915050565b60018060a01b038616815284602082015283604082015260806060820152816080820152818360a0830137600081830160a090810191909152601f909201601f19160101949350505050565b600060208284031215611ea057600080fd5b5051919050565b634e487b7160e01b600052601160045260246000fd5b600082821015611ecf57611ecf611ea7565b500390565b6000816000190483118215151615611eee57611eee611ea7565b500290565b600181811c90821680611f0757607f821691505b60208210811415611ada57634e487b7160e01b600052602260045260246000fd5b634e487b7160e01b600052601260045260246000fd5b600082611f4d57611f4d611f28565b500490565b60008251611f64818460208701611ca5565b9190910192915050565b600060208284031215611f8057600080fd5b81518015158114611b5a57600080fd5b600080835481600182811c915080831680611fac57607f831692505b6020808410821415611fcc57634e487b7160e01b86526022600452602486fd5b818015611fe05760018114611ff15761201e565b60ff1986168952848901965061201e565b60008a81526020902060005b868110156120165781548b820152908501908301611ffd565b505084890196505b509498975050505050505050565b60006020828403121561203e57600080fd5b8151611b5a81611bf7565b6000821982111561205c5761205c611ea7565b500190565b60006001600160e01b038281168482168115158284048211161561208757612087611ea7565b02949350505050565b60006001600160e01b03838116806120aa576120aa611f28565b9216919091049291505056feddf252ad1be2c89b69c2b068fc378daa952ba7f163c4a11628f55a4df523b3efa26469706673582212209ffe9c048e9d626d3255ca13f5cb42a2e28fe064f25b82cd8cbb7c2867058b8464736f6c634300080a0033a26469706673582212204548027168a02be31779937a79b382fbdae38c79188415560b1f8222c48fe36964736f6c634300080a0033",
  "linkReferences": {},
  "deployedLinkReferences": {}
}