{
  "_format": "hh-sol-artifact-1",
  "contractName": "ZuniswapV2Library",
  "sourceName": "contracts/ZuniswapV2Library.sol",
  "abi": [
    {
      "inputs": [],
      "name": "InsufficientAmount",
      "type": "error"
    },
    {
      "inputs": [],
      "name": "InsufficientLiquidity",
      "type": "error"
    },
    {
      "inputs": [],
      "name": "InvalidPath",
      "type": "error"
    },
    {
      "inputs": [
        {
          "internalType": "uint256",
          "name": "amountOut",
          "type": "uint256"
        },
        {
          "internalType": "uint256",
          "name": "reserveIn",
          "type": "uint256"
        },
        {
          "internalType": "uint256",
          "name": "reserveOut",
          "type": "uint256"
        }
      ],
      "name": "getAmountIn",
      "outputs": [
        {
          "internalType": "uint256",
          "name": "",
          "type": "uint256"
        }
      ],
      "stateMutability": "pure",
      "type": "function"
    },
    {
      "inputs": [
        {
          "internalType": "uint256",
          "name": "amountIn",
          "type": "uint256"
        },
        {
          "internalType": "uint256",
          "name": "reserveIn",
          "type": "uint256"
        },
        {
          "internalType": "uint256",
          "name": "reserveOut",
          "type": "uint256"
        }
      ],
      "name": "getAmountOut",
      "outputs": [
        {
          "internalType": "uint256",
          "name": "",
          "type": "uint256"
        }
      ],
      "stateMutability": "pure",
      "type": "function"
    },
    {
      "inputs": [
        {
          "internalType": "uint256",
          "name": "amountIn",
          "type": "uint256"
        },
        {
          "internalType": "uint256",
          "name": "reserveIn",
          "type": "uint256"
        },
        {
          "internalType": "uint256",
          "name": "reserveOut",
          "type": "uint256"
        }
      ],
      "name": "quote",
      "outputs": [
        {
          "internalType": "uint256",
          "name": "amountOut",
          "type": "uint256"
        }
      ],
      "stateMutability": "pure",
      "type": "function"
    }
  ],
  "bytecode": "0x612bb961003a600b82828239805160001a60731461002d57634e487b7160e01b600052600060045260246000fd5b30600052607381538281f3fe7300000000000000000000000000000000000000003014608060405260043610620000735760003560e01c8063054d50d41462000078578063192128b214620000a25780633274946114620000d657806385f8c2591462000111578063ad615dec1462000128578063bb7b9c76146200013f575b600080fd5b6200008f620000893660046200084e565b62000164565b6040519081526020015b60405180910390f35b818015620000af57600080fd5b50620000c7620000c1366004620008ae565b62000208565b6040516200009991906200099f565b818015620000e357600080fd5b50620000fb620000f5366004620009e5565b62000396565b6040805192835260208301919091520162000099565b6200008f620001223660046200084e565b6200046e565b6200008f620001393660046200084e565b62000519565b8180156200014c57600080fd5b50620000c76200015e366004620008ae565b62000586565b6000836200018557604051632ca2f52b60e11b815260040160405180910390fd5b82158062000191575081155b15620001b05760405163bb55fd2760e01b815260040160405180910390fd5b6000620001c0856103e562000a45565b90506000620001d0848362000a45565b9050600082620001e3876103e862000a45565b620001ef919062000a67565b9050620001fd818362000a82565b979650505050505050565b60606002825110156200022e576040516320db826760e01b815260040160405180910390fd5b6000825167ffffffffffffffff8111156200024d576200024d62000898565b60405190808252806020026020018201604052801562000277578160200160208202803683370190505b5090508381600183516200028c919062000aa5565b815181106200029f576200029f62000abf565b602002602001018181525050600060018451620002bd919062000aa5565b90505b80156200038d576000806200031b8887620002dd60018762000aa5565b81518110620002f057620002f062000abf565b60200260200101518886815181106200030d576200030d62000abf565b602002602001015162000396565b915091506200034884848151811062000338576200033862000abf565b602002602001015183836200046e565b846200035660018662000aa5565b8151811062000369576200036962000abf565b60200260200101818152505050508080620003849062000ad5565b915050620002c0565b50949350505050565b600080600080620003a88686620006f0565b91509150600080620003bc89858562000723565b6001600160a01b0316630902f1ac6040518163ffffffff1660e01b81526004016060604051808303816000875af1158015620003fc573d6000803e3d6000fd5b505050506040513d601f19601f8201168201806040525081019062000422919062000b07565b506001600160701b031691506001600160701b03169150836001600160a01b0316886001600160a01b0316146200045b5780826200045e565b81815b909a909950975050505050505050565b6000836200048f57604051632ca2f52b60e11b815260040160405180910390fd5b8215806200049b575081155b15620004ba5760405163bb55fd2760e01b815260040160405180910390fd5b6000620004c8858562000a45565b620004d6906103e862000a45565b90506000620004e6868562000aa5565b620004f4906103e562000a45565b905062000502818362000a82565b6200050f90600162000a67565b9695505050505050565b6000836200053a57604051632ca2f52b60e11b815260040160405180910390fd5b82158062000546575081155b15620005655760405163bb55fd2760e01b815260040160405180910390fd5b8262000572838662000a45565b6200057e919062000a82565b949350505050565b6060600282511015620005ac576040516320db826760e01b815260040160405180910390fd5b6000825167ffffffffffffffff811115620005cb57620005cb62000898565b604051908082528060200260200182016040528015620005f5578160200160208202803683370190505b50905083816000815181106200060f576200060f62000abf565b60200260200101818152505060005b600184516200062e919062000aa5565b8110156200038d576000806200067e8887858151811062000653576200065362000abf565b6020026020010151888660016200066b919062000a67565b815181106200030d576200030d62000abf565b91509150620006ab8484815181106200069b576200069b62000abf565b6020026020010151838362000164565b84620006b985600162000a67565b81518110620006cc57620006cc62000abf565b60200260200101818152505050508080620006e79062000b5d565b9150506200061e565b600080826001600160a01b0316846001600160a01b0316106200071557828462000718565b83835b915091509250929050565b6000806000620007348585620006f0565b915091506000604051806020016200074c9062000840565b601f1982820381018352601f90910116604081905262000770919060200162000b7b565b604051602081830303815290604052805190602001209050868383604051602001620007c0929190606092831b6bffffffffffffffffffffffff1990811682529190921b16601482015260280190565b60405160208183030381529060405280519060200120826040516020016200081d939291906001600160f81b0319815260609390931b6bffffffffffffffffffffffff191660018401526015830191909152603582015260550190565b60408051601f198184030181529190528051602090910120979650505050505050565b611fca8062000bba83390190565b6000806000606084860312156200086457600080fd5b505081359360208301359350604090920135919050565b80356001600160a01b03811681146200089357600080fd5b919050565b634e487b7160e01b600052604160045260246000fd5b600080600060608486031215620008c457600080fd5b620008cf846200087b565b92506020808501359250604085013567ffffffffffffffff80821115620008f557600080fd5b818701915087601f8301126200090a57600080fd5b8135818111156200091f576200091f62000898565b8060051b604051601f19603f8301168101818110858211171562000947576200094762000898565b60405291825284820192508381018501918a8311156200096657600080fd5b938501935b828510156200098f576200097f856200087b565b845293850193928501926200096b565b8096505050505050509250925092565b6020808252825182820181905260009190848201906040850190845b81811015620009d957835183529284019291840191600101620009bb565b50909695505050505050565b600080600060608486031215620009fb57600080fd5b62000a06846200087b565b925062000a16602085016200087b565b915062000a26604085016200087b565b90509250925092565b634e487b7160e01b600052601160045260246000fd5b600081600019048311821515161562000a625762000a6262000a2f565b500290565b6000821982111562000a7d5762000a7d62000a2f565b500190565b60008262000aa057634e487b7160e01b600052601260045260246000fd5b500490565b60008282101562000aba5762000aba62000a2f565b500390565b634e487b7160e01b600052603260045260246000fd5b60008162000ae75762000ae762000a2f565b506000190190565b80516001600160701b03811681146200089357600080fd5b60008060006060848603121562000b1d57600080fd5b62000b288462000aef565b925062000b386020850162000aef565b9150604084015163ffffffff8116811462000b5257600080fd5b809150509250925092565b600060001982141562000b745762000b7462000a2f565b5060010190565b6000825160005b8181101562000b9e576020818601810151858301520162000b82565b8181111562000bae576000828501525b50919091019291505056fe60e06040523480156200001157600080fd5b50604080518082018252600c81526b29b430b330b3b4102830b4b960a11b60208083019182528351808501909452600484526329a4219960e11b90840152815191929160129162000066916000919062000150565b5081516200007c90600190602085019062000150565b5060ff81166080524660a052620000926200009f565b60c05250620002d7915050565b60007f8b73c3c69bb8fe3d512ecc4cf759cc79239f7b179b0ffacaa9a75d522b39400f6000604051620000d3919062000233565b60408051918290038220828201825260018352603160f81b6020938401528151928301939093528101919091527fc89efdaa54c0f20c7adf612882df0950f5a951637e0307cdcb4c672f298b8bc660608201524660808201523060a082015260c00160405160208183030381529060405280519060200120905090565b8280546200015e90620001f6565b90600052602060002090601f016020900481019282620001825760008555620001cd565b82601f106200019d57805160ff1916838001178555620001cd565b82800160010185558215620001cd579182015b82811115620001cd578251825591602001919060010190620001b0565b50620001db929150620001df565b5090565b5b80821115620001db5760008155600101620001e0565b600181811c908216806200020b57607f821691505b602082108114156200022d57634e487b7160e01b600052602260045260246000fd5b50919050565b600080835481600182811c9150808316806200025057607f831692505b60208084108214156200027157634e487b7160e01b86526022600452602486fd5b8180156200028857600181146200029a57620002c9565b60ff19861689528489019650620002c9565b60008a81526020902060005b86811015620002c15781548b820152908501908301620002a6565b505084890196505b509498975050505050505050565b60805160a05160c051611cc36200030760003960006109dd015260006109a80152600061025d0152611cc36000f3fe608060405234801561001057600080fd5b506004361061014d5760003560e01c80635909c0d5116100c357806395d89b411161007c57806395d89b4114610339578063a9059cbb14610341578063d21220a714610354578063d505accf14610367578063dd62ed3e1461037a578063fff6cae9146103a557600080fd5b80635909c0d5146102ac5780635a3d5493146102b55780636a627842146102be57806370a08231146102d15780637ecebe00146102f157806389afcb441461031157600080fd5b806318160ddd1161011557806318160ddd1461020757806323b872dd1461021e57806330adf81f14610231578063313ce567146102585780633644e51514610291578063485cc9551461029957600080fd5b8063022c0d9f1461015257806306fdde03146101675780630902f1ac14610185578063095ea7b3146101b95780630dfe1681146101dc575b600080fd5b6101656101603660046117f8565b6103ad565b005b61016f610798565b60405161017c91906118bc565b60405180910390f35b61018d610826565b604080516001600160701b03948516815293909216602084015263ffffffff169082015260600161017c565b6101cc6101c73660046118ef565b610850565b604051901515815260200161017c565b6006546101ef906001600160a01b031681565b6040516001600160a01b03909116815260200161017c565b61021060025481565b60405190815260200161017c565b6101cc61022c366004611919565b6108bc565b6102107f6e71edae12b1b97f4d1f60370fef10105fa2faae0126114a169c64845d6126c981565b61027f7f000000000000000000000000000000000000000000000000000000000000000081565b60405160ff909116815260200161017c565b6102106109a4565b6101656102a7366004611955565b6109ff565b61021060095481565b610210600a5481565b6102106102cc366004611988565b610a6d565b6102106102df366004611988565b60036020526000908152604090205481565b6102106102ff366004611988565b60056020526000908152604090205481565b61032461031f366004611988565b610ca5565b6040805192835260208301919091520161017c565b61016f610f7c565b6101cc61034f3660046118ef565b610f89565b6007546101ef906001600160a01b031681565b6101656103753660046119a3565b610fef565b610210610388366004611955565b600460209081526000928352604080842090915290825290205481565b610165611254565b600b5460ff16156103bd57600080fd5b600b805460ff19166001179055841580156103d6575083155b156103f4576040516342301c2360e01b815260040160405180910390fd5b6000806103ff610826565b5091509150816001600160701b03168711806104235750806001600160701b031686115b156104415760405163bb55fd2760e01b815260040160405180910390fd5b861561045e5760065461045e906001600160a01b0316868961134d565b851561047b5760075461047b906001600160a01b0316868861134d565b82156104e857604051630c68e5d560e41b81526001600160a01b0386169063c68e5d50906104b59033908b908b908a908a90600401611a16565b600060405180830381600087803b1580156104cf57600080fd5b505af11580156104e3573d6000803e3d6000fd5b505050505b6006546040516370a0823160e01b81523060048201526000916001600160a01b0316906370a0823190602401602060405180830381865afa158015610531573d6000803e3d6000fd5b505050506040513d601f19601f820116820180604052508101906105559190611a62565b6007546040516370a0823160e01b81523060048201529192506000916001600160a01b03909116906370a0823190602401602060405180830381865afa1580156105a3573d6000803e3d6000fd5b505050506040513d601f19601f820116820180604052508101906105c79190611a62565b6008549091506000906105e4908b906001600160701b0316611a91565b83116105f1576000610612565b600854610608908b906001600160701b0316611a91565b6106129084611a91565b600854909150600090610636908b90600160701b90046001600160701b0316611a91565b831161064357600061066b565b600854610661908b90600160701b90046001600160701b0316611a91565b61066b9084611a91565b905081158015610679575080155b156106975760405163098fb56160e01b815260040160405180910390fd5b60006106a4836003611aa8565b6106b0866103e8611aa8565b6106ba9190611a91565b905060006106c9836003611aa8565b6106d5866103e8611aa8565b6106df9190611a91565b90506106f76001600160701b03808916908a16611aa8565b61070490620f4240611aa8565b61070e8284611aa8565b101561072d57604051632f62f0d960e21b815260040160405180910390fd5b61073986868a8a61143c565b604080518e8152602081018e90526001600160a01b038d169133917f2a9237ff5aa599ef4c5ee4b1142b53429d5755e2685fe6288b2e3320202115f5910160405180910390a35050600b805460ff191690555050505050505050505050565b600080546107a590611ac7565b80601f01602080910402602001604051908101604052809291908181526020018280546107d190611ac7565b801561081e5780601f106107f35761010080835404028352916020019161081e565b820191906000526020600020905b81548152906001019060200180831161080157829003601f168201915b505050505081565b6008546001600160701b0380821692600160701b830490911691600160e01b900463ffffffff1690565b3360008181526004602090815260408083206001600160a01b038716808552925280832085905551919290917f8c5be1e5ebec7d5bd14f71427d1e84f3dd0314c0f7b2291e5b200ac8c7c3b925906108ab9086815260200190565b60405180910390a350600192915050565b6001600160a01b038316600090815260046020908152604080832033845290915281205460001914610921576001600160a01b03841660009081526004602090815260408083203384529091528120805484929061091b908490611a91565b90915550505b6001600160a01b03841660009081526003602052604081208054849290610949908490611a91565b90915550506001600160a01b0380841660008181526003602052604090819020805486019055519091861690600080516020611c6e833981519152906109929086815260200190565b60405180910390a35060019392505050565b60007f000000000000000000000000000000000000000000000000000000000000000046146109da576109d56115ba565b905090565b507f000000000000000000000000000000000000000000000000000000000000000090565b6006546001600160a01b0316151580610a2257506007546001600160a01b031615155b15610a3f5760405162dc149f60e41b815260040160405180910390fd5b600680546001600160a01b039384166001600160a01b03199182161790915560078054929093169116179055565b6000806000610a7a610826565b506006546040516370a0823160e01b81523060048201529294509092506000916001600160a01b03909116906370a0823190602401602060405180830381865afa158015610acc573d6000803e3d6000fd5b505050506040513d601f19601f82011682018060405250810190610af09190611a62565b6007546040516370a0823160e01b81523060048201529192506000916001600160a01b03909116906370a0823190602401602060405180830381865afa158015610b3e573d6000803e3d6000fd5b505050506040513d601f19601f82011682018060405250810190610b629190611a62565b90506000610b796001600160701b03861684611a91565b90506000610b906001600160701b03861684611a91565b905060025460001415610bd0576103e8610bb2610bad8385611aa8565b611669565b610bbc9190611a91565b9650610bcb60006103e86116d9565b610c1f565b610c1c866001600160701b031660025484610beb9190611aa8565b610bf59190611b12565b866001600160701b031660025484610c0d9190611aa8565b610c179190611b12565b611733565b96505b60008711610c4057604051633489be7560e21b815260040160405180910390fd5b610c4a88886116d9565b610c568484888861143c565b60408051838152602081018390526001600160a01b038a16917f4c209b5fc8ad50758f13e2e1088ba56a560dff690a1c6fef26394f4c03821c4f910160405180910390a2505050505050919050565b6006546040516370a0823160e01b8152306004820152600091829182916001600160a01b0316906370a0823190602401602060405180830381865afa158015610cf2573d6000803e3d6000fd5b505050506040513d601f19601f82011682018060405250810190610d169190611a62565b6007546040516370a0823160e01b81523060048201529192506000916001600160a01b03909116906370a0823190602401602060405180830381865afa158015610d64573d6000803e3d6000fd5b505050506040513d601f19601f82011682018060405250810190610d889190611a62565b3060009081526003602052604090205460025491925090610da98483611aa8565b610db39190611b12565b600254909550610dc38383611aa8565b610dcd9190611b12565b9350841580610dda575083155b15610df85760405163749383ad60e01b815260040160405180910390fd5b610e02308261174b565b600654610e19906001600160a01b0316878761134d565b600754610e30906001600160a01b0316878661134d565b6006546040516370a0823160e01b81523060048201526001600160a01b03909116906370a0823190602401602060405180830381865afa158015610e78573d6000803e3d6000fd5b505050506040513d601f19601f82011682018060405250810190610e9c9190611a62565b6007546040516370a0823160e01b81523060048201529194506001600160a01b0316906370a0823190602401602060405180830381865afa158015610ee5573d6000803e3d6000fd5b505050506040513d601f19601f82011682018060405250810190610f099190611a62565b9150600080610f16610826565b5091509150610f278585848461143c565b60408051888152602081018890526001600160a01b038a1681830152905133917fdccd412f0b1252819cb1fd330b93224ca42612892bb3f4f789976e6d81936496919081900360600190a25050505050915091565b600180546107a590611ac7565b33600090815260036020526040812080548391908390610faa908490611a91565b90915550506001600160a01b03831660008181526003602052604090819020805485019055513390600080516020611c6e833981519152906108ab9086815260200190565b428410156110445760405162461bcd60e51b815260206004820152601760248201527f5045524d49545f444541444c494e455f4558504952454400000000000000000060448201526064015b60405180910390fd5b600061104e6109a4565b6001600160a01b0389811660008181526005602090815260409182902080546001810190915582517f6e71edae12b1b97f4d1f60370fef10105fa2faae0126114a169c64845d6126c98184015280840194909452938c166060840152608083018b905260a083019390935260c08083018a90528151808403909101815260e08301909152805192019190912061190160f01b6101008301526101028201929092526101228101919091526101420160408051601f198184030181528282528051602091820120600080855291840180845281905260ff88169284019290925260608301869052608083018590529092509060019060a0016020604051602081039080840390855afa158015611167573d6000803e3d6000fd5b5050604051601f1901519150506001600160a01b0381161580159061119d5750886001600160a01b0316816001600160a01b0316145b6111e95760405162461bcd60e51b815260206004820152601860248201527f494e56414c49445f5045524d49545f5349474e41545552450000000000000000604482015260640161103b565b6001600160a01b0390811660009081526004602090815260408083208b8516808552908352928190208a905551898152919350918a16917f8c5be1e5ebec7d5bd14f71427d1e84f3dd0314c0f7b2291e5b200ac8c7c3b925910160405180910390a350505050505050565b60008061125f610826565b506006546040516370a0823160e01b8152306004820152929450909250611349916001600160a01b03909116906370a0823190602401602060405180830381865afa1580156112b2573d6000803e3d6000fd5b505050506040513d601f19601f820116820180604052508101906112d69190611a62565b6007546040516370a0823160e01b81523060048201526001600160a01b03909116906370a0823190602401602060405180830381865afa15801561131e573d6000803e3d6000fd5b505050506040513d601f19601f820116820180604052508101906113429190611a62565b848461143c565b5050565b6040516001600160a01b03838116602483015260448201839052600091829186169060640160408051601f198184030181529181526020820180516001600160e01b031663a9059cbb60e01b179052516113a79190611b26565b6000604051808303816000865af19150503d80600081146113e4576040519150601f19603f3d011682016040523d82523d6000602084013e6113e9565b606091505b509150915081158061141757508051158015906114175750808060200190518101906114159190611b42565b155b15611435576040516312171d8360e31b815260040160405180910390fd5b5050505050565b6001600160701b0384118061145757506001600160701b0383115b15611475576040516389560ca160e01b815260040160405180910390fd5b60085463ffffffff600160e01b90910481164203908116158015906114a357506000836001600160701b0316115b80156114b857506000826001600160701b0316115b15611523578063ffffffff166114e0846114d1856117ad565b6001600160e01b0316906117cc565b600980546001600160e01b03929092169290920201905563ffffffff811661150b836114d1866117ad565b600a80546001600160e01b0392909216929092020190555b506008805463ffffffff4216600160e01b026001600160e01b036001600160701b03878116600160701b9081026001600160e01b03199095168a83161794909417918216831794859055604080519382169282169290921783529290930490911660208201527fcf2aa50876cdfbb541206f89af0ee78d44a2abf8d328e37fa4917f982149848a910160405180910390a150505050565b60007f8b73c3c69bb8fe3d512ecc4cf759cc79239f7b179b0ffacaa9a75d522b39400f60006040516115ec9190611b64565b60408051918290038220828201825260018352603160f81b6020938401528151928301939093528101919091527fc89efdaa54c0f20c7adf612882df0950f5a951637e0307cdcb4c672f298b8bc660608201524660808201523060a082015260c00160405160208183030381529060405280519060200120905090565b600060038211156116ca5750806000611683600283611b12565b61168e906001611c00565b90505b818110156116c4579050806002816116a98186611b12565b6116b39190611c00565b6116bd9190611b12565b9050611691565b50919050565b81156116d4575060015b919050565b80600260008282546116eb9190611c00565b90915550506001600160a01b038216600081815260036020908152604080832080548601905551848152600080516020611c6e83398151915291015b60405180910390a35050565b60008183106117425781611744565b825b9392505050565b6001600160a01b03821660009081526003602052604081208054839290611773908490611a91565b90915550506002805482900390556040518181526000906001600160a01b03841690600080516020611c6e83398151915290602001611727565b60006117c6600160701b6001600160701b038416611c18565b92915050565b60006117446001600160701b03831684611c47565b80356001600160a01b03811681146116d457600080fd5b60008060008060006080868803121561181057600080fd5b8535945060208601359350611827604087016117e1565b9250606086013567ffffffffffffffff8082111561184457600080fd5b818801915088601f83011261185857600080fd5b81358181111561186757600080fd5b89602082850101111561187957600080fd5b9699959850939650602001949392505050565b60005b838110156118a757818101518382015260200161188f565b838111156118b6576000848401525b50505050565b60208152600082518060208401526118db81604085016020870161188c565b601f01601f19169190910160400192915050565b6000806040838503121561190257600080fd5b61190b836117e1565b946020939093013593505050565b60008060006060848603121561192e57600080fd5b611937846117e1565b9250611945602085016117e1565b9150604084013590509250925092565b6000806040838503121561196857600080fd5b611971836117e1565b915061197f602084016117e1565b90509250929050565b60006020828403121561199a57600080fd5b611744826117e1565b600080600080600080600060e0888a0312156119be57600080fd5b6119c7886117e1565b96506119d5602089016117e1565b95506040880135945060608801359350608088013560ff811681146119f957600080fd5b9699959850939692959460a0840135945060c09093013592915050565b60018060a01b038616815284602082015283604082015260806060820152816080820152818360a0830137600081830160a090810191909152601f909201601f19160101949350505050565b600060208284031215611a7457600080fd5b5051919050565b634e487b7160e01b600052601160045260246000fd5b600082821015611aa357611aa3611a7b565b500390565b6000816000190483118215151615611ac257611ac2611a7b565b500290565b600181811c90821680611adb57607f821691505b602082108114156116c457634e487b7160e01b600052602260045260246000fd5b634e487b7160e01b600052601260045260246000fd5b600082611b2157611b21611afc565b500490565b60008251611b3881846020870161188c565b9190910192915050565b600060208284031215611b5457600080fd5b8151801515811461174457600080fd5b600080835481600182811c915080831680611b8057607f831692505b6020808410821415611ba057634e487b7160e01b86526022600452602486fd5b818015611bb45760018114611bc557611bf2565b60ff19861689528489019650611bf2565b60008a81526020902060005b86811015611bea5781548b820152908501908301611bd1565b505084890196505b509498975050505050505050565b60008219821115611c1357611c13611a7b565b500190565b60006001600160e01b0382811684821681151582840482111615611c3e57611c3e611a7b565b02949350505050565b60006001600160e01b0383811680611c6157611c61611afc565b9216919091049291505056feddf252ad1be2c89b69c2b068fc378daa952ba7f163c4a11628f55a4df523b3efa26469706673582212208c5cc1961f9afdd33da55c07929b06afcfa94869d0dda100e46cc5f13c212c8064736f6c634300080a0033a2646970667358221220f33c03a2ec7cb6a1ec6d146fa2a2c21c110b55d279f1c9ba1071d761493ed8be64736f6c634300080a0033",
  "linkReferences": {},
  "deployedLinkReferences": {}
}