{
  "_format": "hh-sol-artifact-1",
  "contractName": "ERC20Mintable",
  "sourceName": "contracts/mocks/ERC20Mintable.sol",
  "abi": [
    {
      "inputs": [
        {
          "internalType": "string",
          "name": "name_",
          "type": "string"
        },
        {
          "internalType": "string",
          "name": "symbol_",
          "type": "string"
        }
      ],
      "stateMutability": "nonpayable",
      "type": "constructor"
    },
    {
      "anonymous": false,
      "inputs": [
        {
          "indexed": true,
          "internalType": "address",
          "name": "owner",
          "type": "address"
        },
        {
          "indexed": true,
          "internalType": "address",
          "name": "spender",
          "type": "address"
        },
        {
          "indexed": false,
          "internalType": "uint256",
          "name": "amount",
          "type": "uint256"
        }
      ],
      "name": "Approval",
      "type": "event"
    },
    {
      "anonymous": false,
      "inputs": [
        {
          "indexed": true,
          "internalType": "address",
          "name": "from",
          "type": "address"
        },
        {
          "indexed": true,
          "internalType": "address",
          "name": "to",
          "type": "address"
        },
        {
          "indexed": false,
          "internalType": "uint256",
          "name": "amount",
          "type": "uint256"
        }
      ],
      "name": "Transfer",
      "type": "event"
    },
    {
      "inputs": [],
      "name": "DOMAIN_SEPARATOR",
      "outputs": [
        {
          "internalType": "bytes32",
          "name": "",
          "type": "bytes32"
        }
      ],
      "stateMutability": "view",
      "type": "function"
    },
    {
      "inputs": [],
      "name": "PERMIT_TYPEHASH",
      "outputs": [
        {
          "internalType": "bytes32",
          "name": "",
          "type": "bytes32"
        }
      ],
      "stateMutability": "view",
      "type": "function"
    },
    {
      "inputs": [
        {
          "internalType": "address",
          "name": "",
          "type": "address"
        },
        {
          "internalType": "address",
          "name": "",
          "type": "address"
        }
      ],
      "name": "allowance",
      "outputs": [
        {
          "internalType": "uint256",
          "name": "",
          "type": "uint256"
        }
      ],
      "stateMutability": "view",
      "type": "function"
    },
    {
      "inputs": [
        {
          "internalType": "address",
          "name": "spender",
          "type": "address"
        },
        {
          "internalType": "uint256",
          "name": "amount",
          "type": "uint256"
        }
      ],
      "name": "approve",
      "outputs": [
        {
          "internalType": "bool",
          "name": "",
          "type": "bool"
        }
      ],
      "stateMutability": "nonpayable",
      "type": "function"
    },
    {
      "inputs": [
        {
          "internalType": "address",
          "name": "",
          "type": "address"
        }
      ],
      "name": "balanceOf",
      "outputs": [
        {
          "internalType": "uint256",
          "name": "",
          "type": "uint256"
        }
      ],
      "stateMutability": "view",
      "type": "function"
    },
    {
      "inputs": [],
      "name": "decimals",
      "outputs": [
        {
          "internalType": "uint8",
          "name": "",
          "type": "uint8"
        }
      ],
      "stateMutability": "view",
      "type": "function"
    },
    {
      "inputs": [
        {
          "internalType": "uint256",
          "name": "amount",
          "type": "uint256"
        },
        {
          "internalType": "address",
          "name": "to",
          "type": "address"
        }
      ],
      "name": "mint",
      "outputs": [],
      "stateMutability": "nonpayable",
      "type": "function"
    },
    {
      "inputs": [],
      "name": "name",
      "outputs": [
        {
          "internalType": "string",
          "name": "",
          "type": "string"
        }
      ],
      "stateMutability": "view",
      "type": "function"
    },
    {
      "inputs": [
        {
          "internalType": "address",
          "name": "",
          "type": "address"
        }
      ],
      "name": "nonces",
      "outputs": [
        {
          "internalType": "uint256",
          "name": "",
          "type": "uint256"
        }
      ],
      "stateMutability": "view",
      "type": "function"
    },
    {
      "inputs": [
        {
          "internalType": "address",
          "name": "owner",
          "type": "address"
        },
        {
          "internalType": "address",
          "name": "spender",
          "type": "address"
        },
        {
          "internalType": "uint256",
          "name": "value",
          "type": "uint256"
        },
        {
          "internalType": "uint256",
          "name": "deadline",
          "type": "uint256"
        },
        {
          "internalType": "uint8",
          "name": "v",
          "type": "uint8"
        },
        {
          "internalType": "bytes32",
          "name": "r",
          "type": "bytes32"
        },
        {
          "internalType": "bytes32",
          "name": "s",
          "type": "bytes32"
        }
      ],
      "name": "permit",
      "outputs": [],
      "stateMutability": "nonpayable",
      "type": "function"
    },
    {
      "inputs": [],
      "name": "symbol",
      "outputs": [
        {
          "internalType": "string",
          "name": "",
          "type": "string"
        }
      ],
      "stateMutability": "view",
      "type": "function"
    },
    {
      "inputs": [],
      "name": "totalSupply",
      "outputs": [
        {
          "internalType": "uint256",
          "name": "",
          "type": "uint256"
        }
      ],
      "stateMutability": "view",
      "type": "function"
    },
    {
      "inputs": [
        {
          "internalType": "address",
          "name": "to",
          "type": "address"
        },
        {
          "internalType": "uint256",
          "name": "amount",
          "type": "uint256"
        }
      ],
      "name": "transfer",
      "outputs": [
        {
          "internalType": "bool",
          "name": "",
          "type": "bool"
        }
      ],
      "stateMutability": "nonpayable",
      "type": "function"
    },
    {
      "inputs": [
        {
          "internalType": "address",
          "name": "from",
          "type": "address"
        },
        {
          "internalType": "address",
          "name": "to",
          "type": "address"
        },
        {
          "internalType": "uint256",
          "name": "amount",
          "type": "uint256"
        }
      ],
      "name": "transferFrom",
      "outputs": [
        {
          "internalType": "bool",
          "name": "",
          "type": "bool"
        }
      ],
      "stateMutability": "nonpayable",
      "type": "function"
    }
  ],
  "bytecode": "0x60e06040523480156200001157600080fd5b506040516200100f3803806200100f8339810160408190526200003491620002af565b818160128260009080519060200190620000509291906200013c565b508151620000669060019060208501906200013c565b5060ff81166080524660a0526200007c6200008b565b60c05250620003fa9350505050565b60007f8b73c3c69bb8fe3d512ecc4cf759cc79239f7b179b0ffacaa9a75d522b39400f6000604051620000bf919062000356565b60408051918290038220828201825260018352603160f81b6020938401528151928301939093528101919091527fc89efdaa54c0f20c7adf612882df0950f5a951637e0307cdcb4c672f298b8bc660608201524660808201523060a082015260c00160405160208183030381529060405280519060200120905090565b8280546200014a9062000319565b90600052602060002090601f0160209004810192826200016e5760008555620001b9565b82601f106200018957805160ff1916838001178555620001b9565b82800160010185558215620001b9579182015b82811115620001b95782518255916020019190600101906200019c565b50620001c7929150620001cb565b5090565b5b80821115620001c75760008155600101620001cc565b634e487b7160e01b600052604160045260246000fd5b600082601f8301126200020a57600080fd5b81516001600160401b0380821115620002275762000227620001e2565b604051601f8301601f19908116603f01168101908282118183101715620002525762000252620001e2565b816040528381526020925086838588010111156200026f57600080fd5b600091505b8382101562000293578582018301518183018401529082019062000274565b83821115620002a55760008385830101525b9695505050505050565b60008060408385031215620002c357600080fd5b82516001600160401b0380821115620002db57600080fd5b620002e986838701620001f8565b935060208501519150808211156200030057600080fd5b506200030f85828601620001f8565b9150509250929050565b600181811c908216806200032e57607f821691505b602082108114156200035057634e487b7160e01b600052602260045260246000fd5b50919050565b600080835481600182811c9150808316806200037357607f831692505b60208084108214156200039457634e487b7160e01b86526022600452602486fd5b818015620003ab5760018114620003bd57620003ec565b60ff19861689528489019650620003ec565b60008a81526020902060005b86811015620003e45781548b820152908501908301620003c9565b505084890196505b509498975050505050505050565b60805160a05160c051610be56200042a600039600061049d01526000610468015260006101860152610be56000f3fe608060405234801561001057600080fd5b50600436106100ea5760003560e01c806370a082311161008c57806395d89b411161006657806395d89b4114610217578063a9059cbb1461021f578063d505accf14610232578063dd62ed3e1461024557600080fd5b806370a08231146101c25780637ecebe00146101e257806394bf804d1461020257600080fd5b806323b872dd116100c857806323b872dd1461014757806330adf81f1461015a578063313ce567146101815780633644e515146101ba57600080fd5b806306fdde03146100ef578063095ea7b31461010d57806318160ddd14610130575b600080fd5b6100f7610270565b60405161010491906108d1565b60405180910390f35b61012061011b366004610942565b6102fe565b6040519015158152602001610104565b61013960025481565b604051908152602001610104565b61012061015536600461096c565b61036a565b6101397f6e71edae12b1b97f4d1f60370fef10105fa2faae0126114a169c64845d6126c981565b6101a87f000000000000000000000000000000000000000000000000000000000000000081565b60405160ff9091168152602001610104565b610139610464565b6101396101d03660046109a8565b60036020526000908152604090205481565b6101396101f03660046109a8565b60056020526000908152604090205481565b6102156102103660046109ca565b6104bf565b005b6100f76104cd565b61012061022d366004610942565b6104da565b6102156102403660046109f6565b610552565b610139610253366004610a69565b600460209081526000928352604080842090915290825290205481565b6000805461027d90610a93565b80601f01602080910402602001604051908101604052809291908181526020018280546102a990610a93565b80156102f65780601f106102cb576101008083540402835291602001916102f6565b820191906000526020600020905b8154815290600101906020018083116102d957829003601f168201915b505050505081565b3360008181526004602090815260408083206001600160a01b038716808552925280832085905551919290917f8c5be1e5ebec7d5bd14f71427d1e84f3dd0314c0f7b2291e5b200ac8c7c3b925906103599086815260200190565b60405180910390a350600192915050565b6001600160a01b0383166000908152600460209081526040808320338452909152812054600019146103cf576001600160a01b0384166000908152600460209081526040808320338452909152812080548492906103c9908490610ae4565b90915550505b6001600160a01b038416600090815260036020526040812080548492906103f7908490610ae4565b90915550506001600160a01b03808416600081815260036020526040908190208054860190555190918616907fddf252ad1be2c89b69c2b068fc378daa952ba7f163c4a11628f55a4df523b3ef906104529086815260200190565b60405180910390a35060019392505050565b60007f0000000000000000000000000000000000000000000000000000000000000000461461049a576104956107b7565b905090565b507f000000000000000000000000000000000000000000000000000000000000000090565b6104c98183610866565b5050565b6001805461027d90610a93565b336000908152600360205260408120805483919083906104fb908490610ae4565b90915550506001600160a01b038316600081815260036020526040908190208054850190555133907fddf252ad1be2c89b69c2b068fc378daa952ba7f163c4a11628f55a4df523b3ef906103599086815260200190565b428410156105a75760405162461bcd60e51b815260206004820152601760248201527f5045524d49545f444541444c494e455f4558504952454400000000000000000060448201526064015b60405180910390fd5b60006105b1610464565b6001600160a01b0389811660008181526005602090815260409182902080546001810190915582517f6e71edae12b1b97f4d1f60370fef10105fa2faae0126114a169c64845d6126c98184015280840194909452938c166060840152608083018b905260a083019390935260c08083018a90528151808403909101815260e08301909152805192019190912061190160f01b6101008301526101028201929092526101228101919091526101420160408051601f198184030181528282528051602091820120600080855291840180845281905260ff88169284019290925260608301869052608083018590529092509060019060a0016020604051602081039080840390855afa1580156106ca573d6000803e3d6000fd5b5050604051601f1901519150506001600160a01b038116158015906107005750886001600160a01b0316816001600160a01b0316145b61074c5760405162461bcd60e51b815260206004820152601860248201527f494e56414c49445f5045524d49545f5349474e41545552450000000000000000604482015260640161059e565b6001600160a01b0390811660009081526004602090815260408083208b8516808552908352928190208a905551898152919350918a16917f8c5be1e5ebec7d5bd14f71427d1e84f3dd0314c0f7b2291e5b200ac8c7c3b925910160405180910390a350505050505050565b60007f8b73c3c69bb8fe3d512ecc4cf759cc79239f7b179b0ffacaa9a75d522b39400f60006040516107e99190610afb565b60408051918290038220828201825260018352603160f81b6020938401528151928301939093528101919091527fc89efdaa54c0f20c7adf612882df0950f5a951637e0307cdcb4c672f298b8bc660608201524660808201523060a082015260c00160405160208183030381529060405280519060200120905090565b80600260008282546108789190610b97565b90915550506001600160a01b0382166000818152600360209081526040808320805486019055518481527fddf252ad1be2c89b69c2b068fc378daa952ba7f163c4a11628f55a4df523b3ef910160405180910390a35050565b600060208083528351808285015260005b818110156108fe578581018301518582016040015282016108e2565b81811115610910576000604083870101525b50601f01601f1916929092016040019392505050565b80356001600160a01b038116811461093d57600080fd5b919050565b6000806040838503121561095557600080fd5b61095e83610926565b946020939093013593505050565b60008060006060848603121561098157600080fd5b61098a84610926565b925061099860208501610926565b9150604084013590509250925092565b6000602082840312156109ba57600080fd5b6109c382610926565b9392505050565b600080604083850312156109dd57600080fd5b823591506109ed60208401610926565b90509250929050565b600080600080600080600060e0888a031215610a1157600080fd5b610a1a88610926565b9650610a2860208901610926565b95506040880135945060608801359350608088013560ff81168114610a4c57600080fd5b9699959850939692959460a0840135945060c09093013592915050565b60008060408385031215610a7c57600080fd5b610a8583610926565b91506109ed60208401610926565b600181811c90821680610aa757607f821691505b60208210811415610ac857634e487b7160e01b600052602260045260246000fd5b50919050565b634e487b7160e01b600052601160045260246000fd5b600082821015610af657610af6610ace565b500390565b600080835481600182811c915080831680610b1757607f831692505b6020808410821415610b3757634e487b7160e01b86526022600452602486fd5b818015610b4b5760018114610b5c57610b89565b60ff19861689528489019650610b89565b60008a81526020902060005b86811015610b815781548b820152908501908301610b68565b505084890196505b509498975050505050505050565b60008219821115610baa57610baa610ace565b50019056fea26469706673582212205868105b8c84779d13e4f002ec0bdc90bafb0760643c5075c115600debc7480a64736f6c634300080a0033",
  "linkReferences": {},
  "deployedLinkReferences": {}
}